{"abi":[{"type":"function","name":"accruedProtocolFees","inputs":[],"outputs":[{"name":"","type":"uint256","internalType":"uint256"}],"stateMutability":"view"},{"type":"function","name":"allowance","inputs":[{"name":"","type":"address","internalType":"address"},{"name":"","type":"address","internalType":"address"}],"outputs":[{"name":"","type":"uint256","internalType":"uint256"}],"stateMutability":"view"},{"type":"function","name":"annualInterestBips","inputs":[],"outputs":[{"name":"","type":"uint256","internalType":"uint256"}],"stateMutability":"view"},{"type":"function","name":"approve","inputs":[{"name":"spender","type":"address","internalType":"address"},{"name":"amount","type":"uint256","internalType":"uint256"}],"outputs":[{"name":"","type":"bool","internalType":"bool"}],"stateMutability":"nonpayable"},{"type":"function","name":"archController","inputs":[],"outputs":[{"name":"","type":"address","internalType":"address"}],"stateMutability":"view"},{"type":"function","name":"asset","inputs":[],"outputs":[{"name":"","type":"address","internalType":"address"}],"stateMutability":"view"},{"type":"function","name":"balanceOf","inputs":[{"name":"account","type":"address","internalType":"address"}],"outputs":[{"name":"","type":"uint256","internalType":"uint256"}],"stateMutability":"view"},{"type":"function","name":"borrow","inputs":[{"name":"amount","type":"uint256","internalType":"uint256"}],"outputs":[],"stateMutability":"nonpayable"},{"type":"function","name":"borrowableAssets","inputs":[],"outputs":[{"name":"","type":"uint256","internalType":"uint256"}],"stateMutability":"view"},{"type":"function","name":"borrower","inputs":[],"outputs":[{"name":"","type":"address","internalType":"address"}],"stateMutability":"view"},{"type":"function","name":"changeSphereXEngine","inputs":[{"name":"newSphereXEngine","type":"address","internalType":"address"}],"outputs":[],"stateMutability":"nonpayable"},{"type":"function","name":"closeMarket","inputs":[],"outputs":[],"stateMutability":"nonpayable"},{"type":"function","name":"collectFees","inputs":[],"outputs":[],"stateMutability":"nonpayable"},{"type":"function","name":"coverageLiquidity","inputs":[],"outputs":[{"name":"","type":"uint256","internalType":"uint256"}],"stateMutability":"view"},{"type":"function","name":"currentState","inputs":[],"outputs":[{"name":"state","type":"tuple","internalType":"struct MarketState","components":[{"name":"isClosed","type":"bool","internalType":"bool"},{"name":"maxTotalSupply","type":"uint128","internalType":"uint128"},{"name":"accruedProtocolFees","type":"uint128","internalType":"uint128"},{"name":"normalizedUnclaimedWithdrawals","type":"uint128","internalType":"uint128"},{"name":"scaledTotalSupply","type":"uint104","internalType":"uint104"},{"name":"scaledPendingWithdrawals","type":"uint104","internalType":"uint104"},{"name":"pendingWithdrawalExpiry","type":"uint32","internalType":"uint32"},{"name":"isDelinquent","type":"bool","internalType":"bool"},{"name":"timeDelinquent","type":"uint32","internalType":"uint32"},{"name":"annualInterestBips","type":"uint16","internalType":"uint16"},{"name":"reserveRatioBips","type":"uint16","internalType":"uint16"},{"name":"scaleFactor","type":"uint112","internalType":"uint112"},{"name":"lastInterestAccruedTimestamp","type":"uint32","internalType":"uint32"}]}],"stateMutability":"view"},{"type":"function","name":"decimals","inputs":[],"outputs":[{"name":"","type":"uint8","internalType":"uint8"}],"stateMutability":"view"},{"type":"function","name":"delinquencyFeeBips","inputs":[],"outputs":[{"name":"","type":"uint256","internalType":"uint256"}],"stateMutability":"view"},{"type":"function","name":"delinquencyGracePeriod","inputs":[],"outputs":[{"name":"","type":"uint256","internalType":"uint256"}],"stateMutability":"view"},{"type":"function","name":"deposit","inputs":[{"name":"amount","type":"uint256","internalType":"uint256"}],"outputs":[],"stateMutability":"nonpayable"},{"type":"function","name":"depositUpTo","inputs":[{"name":"amount","type":"uint256","internalType":"uint256"}],"outputs":[{"name":"","type":"uint256","internalType":"uint256"}],"stateMutability":"nonpayable"},{"type":"function","name":"executeWithdrawal","inputs":[{"name":"accountAddress","type":"address","internalType":"address"},{"name":"expiry","type":"uint32","internalType":"uint32"}],"outputs":[{"name":"","type":"uint256","internalType":"uint256"}],"stateMutability":"nonpayable"},{"type":"function","name":"executeWithdrawals","inputs":[{"name":"accountAddresses","type":"address[]","internalType":"address[]"},{"name":"expiries","type":"uint32[]","internalType":"uint32[]"}],"outputs":[{"name":"amounts","type":"uint256[]","internalType":"uint256[]"}],"stateMutability":"nonpayable"},{"type":"function","name":"feeRecipient","inputs":[],"outputs":[{"name":"","type":"address","internalType":"address"}],"stateMutability":"view"},{"type":"function","name":"getAccountWithdrawalStatus","inputs":[{"name":"accountAddress","type":"address","internalType":"address"},{"name":"expiry","type":"uint32","internalType":"uint32"}],"outputs":[{"name":"status","type":"tuple","internalType":"struct AccountWithdrawalStatus","components":[{"name":"scaledAmount","type":"uint104","internalType":"uint104"},{"name":"normalizedAmountWithdrawn","type":"uint128","internalType":"uint128"}]}],"stateMutability":"view"},{"type":"function","name":"getAvailableWithdrawalAmount","inputs":[{"name":"accountAddress","type":"address","internalType":"address"},{"name":"expiry","type":"uint32","internalType":"uint32"}],"outputs":[{"name":"","type":"uint256","internalType":"uint256"}],"stateMutability":"view"},{"type":"function","name":"getUnpaidBatchExpiries","inputs":[],"outputs":[{"name":"","type":"uint32[]","internalType":"uint32[]"}],"stateMutability":"view"},{"type":"function","name":"getWithdrawalBatch","inputs":[{"name":"expiry","type":"uint32","internalType":"uint32"}],"outputs":[{"name":"batch","type":"tuple","internalType":"struct WithdrawalBatch","components":[{"name":"scaledTotalAmount","type":"uint104","internalType":"uint104"},{"name":"scaledAmountBurned","type":"uint104","internalType":"uint104"},{"name":"normalizedAmountPaid","type":"uint128","internalType":"uint128"}]}],"stateMutability":"view"},{"type":"function","name":"hooks","inputs":[],"outputs":[{"name":"","type":"uint256","internalType":"HooksConfig"}],"stateMutability":"view"},{"type":"function","name":"isClosed","inputs":[],"outputs":[{"name":"","type":"bool","internalType":"bool"}],"stateMutability":"view"},{"type":"function","name":"maxTotalSupply","inputs":[],"outputs":[{"name":"","type":"uint256","internalType":"uint256"}],"stateMutability":"view"},{"type":"function","name":"maximumDeposit","inputs":[],"outputs":[{"name":"","type":"uint256","internalType":"uint256"}],"stateMutability":"view"},{"type":"function","name":"name","inputs":[],"outputs":[{"name":"","type":"string","internalType":"string"}],"stateMutability":"view"},{"type":"function","name":"nukeFromOrbit","inputs":[{"name":"accountAddress","type":"address","internalType":"address"}],"outputs":[],"stateMutability":"nonpayable"},{"type":"function","name":"previousState","inputs":[],"outputs":[{"name":"","type":"tuple","internalType":"struct MarketState","components":[{"name":"isClosed","type":"bool","internalType":"bool"},{"name":"maxTotalSupply","type":"uint128","internalType":"uint128"},{"name":"accruedProtocolFees","type":"uint128","internalType":"uint128"},{"name":"normalizedUnclaimedWithdrawals","type":"uint128","internalType":"uint128"},{"name":"scaledTotalSupply","type":"uint104","internalType":"uint104"},{"name":"scaledPendingWithdrawals","type":"uint104","internalType":"uint104"},{"name":"pendingWithdrawalExpiry","type":"uint32","internalType":"uint32"},{"name":"isDelinquent","type":"bool","internalType":"bool"},{"name":"timeDelinquent","type":"uint32","internalType":"uint32"},{"name":"annualInterestBips","type":"uint16","internalType":"uint16"},{"name":"reserveRatioBips","type":"uint16","internalType":"uint16"},{"name":"scaleFactor","type":"uint112","internalType":"uint112"},{"name":"lastInterestAccruedTimestamp","type":"uint32","internalType":"uint32"}]}],"stateMutability":"view"},{"type":"function","name":"protocolFeeBips","inputs":[],"outputs":[{"name":"","type":"uint256","internalType":"uint256"}],"stateMutability":"view"},{"type":"function","name":"queueFullWithdrawal","inputs":[],"outputs":[{"name":"expiry","type":"uint32","internalType":"uint32"}],"stateMutability":"nonpayable"},{"type":"function","name":"queueWithdrawal","inputs":[{"name":"amount","type":"uint256","internalType":"uint256"}],"outputs":[{"name":"expiry","type":"uint32","internalType":"uint32"}],"stateMutability":"nonpayable"},{"type":"function","name":"repay","inputs":[{"name":"amount","type":"uint256","internalType":"uint256"}],"outputs":[],"stateMutability":"nonpayable"},{"type":"function","name":"repayAndProcessUnpaidWithdrawalBatches","inputs":[{"name":"repayAmount","type":"uint256","internalType":"uint256"},{"name":"maxBatches","type":"uint256","internalType":"uint256"}],"outputs":[],"stateMutability":"nonpayable"},{"type":"function","name":"repayDelinquentDebt","inputs":[],"outputs":[],"stateMutability":"nonpayable"},{"type":"function","name":"repayOutstandingDebt","inputs":[],"outputs":[],"stateMutability":"nonpayable"},{"type":"function","name":"rescueTokens","inputs":[{"name":"token","type":"address","internalType":"address"}],"outputs":[],"stateMutability":"nonpayable"},{"type":"function","name":"reserveRatioBips","inputs":[],"outputs":[{"name":"","type":"uint256","internalType":"uint256"}],"stateMutability":"view"},{"type":"function","name":"scaleFactor","inputs":[],"outputs":[{"name":"","type":"uint256","internalType":"uint256"}],"stateMutability":"view"},{"type":"function","name":"scaledBalanceOf","inputs":[{"name":"account","type":"address","internalType":"address"}],"outputs":[{"name":"","type":"uint256","internalType":"uint256"}],"stateMutability":"view"},{"type":"function","name":"scaledTotalSupply","inputs":[],"outputs":[{"name":"","type":"uint256","internalType":"uint256"}],"stateMutability":"view"},{"type":"function","name":"sentinel","inputs":[],"outputs":[{"name":"","type":"address","internalType":"address"}],"stateMutability":"view"},{"type":"function","name":"setAnnualInterestAndReserveRatioBips","inputs":[{"name":"_annualInterestBips","type":"uint16","internalType":"uint16"},{"name":"_reserveRatioBips","type":"uint16","internalType":"uint16"}],"outputs":[],"stateMutability":"nonpayable"},{"type":"function","name":"setMaxTotalSupply","inputs":[{"name":"_maxTotalSupply","type":"uint256","internalType":"uint256"}],"outputs":[],"stateMutability":"nonpayable"},{"type":"function","name":"sphereXEngine","inputs":[],"outputs":[{"name":"","type":"address","internalType":"address"}],"stateMutability":"view"},{"type":"function","name":"sphereXOperator","inputs":[],"outputs":[{"name":"","type":"address","internalType":"address"}],"stateMutability":"view"},{"type":"function","name":"symbol","inputs":[],"outputs":[{"name":"","type":"string","internalType":"string"}],"stateMutability":"view"},{"type":"function","name":"totalAssets","inputs":[],"outputs":[{"name":"","type":"uint256","internalType":"uint256"}],"stateMutability":"view"},{"type":"function","name":"totalDebts","inputs":[],"outputs":[{"name":"","type":"uint256","internalType":"uint256"}],"stateMutability":"view"},{"type":"function","name":"totalSupply","inputs":[],"outputs":[{"name":"","type":"uint256","internalType":"uint256"}],"stateMutability":"view"},{"type":"function","name":"transfer","inputs":[{"name":"to","type":"address","internalType":"address"},{"name":"amount","type":"uint256","internalType":"uint256"}],"outputs":[{"name":"","type":"bool","internalType":"bool"}],"stateMutability":"nonpayable"},{"type":"function","name":"transferFrom","inputs":[{"name":"from","type":"address","internalType":"address"},{"name":"to","type":"address","internalType":"address"},{"name":"amount","type":"uint256","internalType":"uint256"}],"outputs":[{"name":"","type":"bool","internalType":"bool"}],"stateMutability":"nonpayable"},{"type":"function","name":"updateState","inputs":[],"outputs":[],"stateMutability":"nonpayable"},{"type":"function","name":"version","inputs":[],"outputs":[{"name":"","type":"string","internalType":"string"}],"stateMutability":"pure"},{"type":"function","name":"withdrawableProtocolFees","inputs":[],"outputs":[{"name":"","type":"uint128","internalType":"uint128"}],"stateMutability":"view"},{"type":"function","name":"withdrawalBatchDuration","inputs":[],"outputs":[{"name":"","type":"uint256","internalType":"uint256"}],"stateMutability":"view"},{"type":"event","name":"AccountSanctioned","inputs":[{"name":"account","type":"address","indexed":true,"internalType":"address"}],"anonymous":false},{"type":"event","name":"AnnualInterestBipsUpdated","inputs":[{"name":"annualInterestBipsUpdated","type":"uint256","indexed":false,"internalType":"uint256"}],"anonymous":false},{"type":"event","name":"Approval","inputs":[{"name":"owner","type":"address","indexed":true,"internalType":"address"},{"name":"spender","type":"address","indexed":true,"internalType":"address"},{"name":"value","type":"uint256","indexed":false,"internalType":"uint256"}],"anonymous":false},{"type":"event","name":"Borrow","inputs":[{"name":"assetAmount","type":"uint256","indexed":false,"internalType":"uint256"}],"anonymous":false},{"type":"event","name":"ChangedSpherexEngineAddress","inputs":[{"name":"oldEngineAddress","type":"address","indexed":false,"internalType":"address"},{"name":"newEngineAddress","type":"address","indexed":false,"internalType":"address"}],"anonymous":false},{"type":"event","name":"ChangedSpherexOperator","inputs":[{"name":"oldSphereXAdmin","type":"address","indexed":false,"internalType":"address"},{"name":"newSphereXAdmin","type":"address","indexed":false,"internalType":"address"}],"anonymous":false},{"type":"event","name":"DebtRepaid","inputs":[{"name":"from","type":"address","indexed":true,"internalType":"address"},{"name":"assetAmount","type":"uint256","indexed":false,"internalType":"uint256"}],"anonymous":false},{"type":"event","name":"Deposit","inputs":[{"name":"account","type":"address","indexed":true,"internalType":"address"},{"name":"assetAmount","type":"uint256","indexed":false,"internalType":"uint256"},{"name":"scaledAmount","type":"uint256","indexed":false,"internalType":"uint256"}],"anonymous":false},{"type":"event","name":"FeesCollected","inputs":[{"name":"assets","type":"uint256","indexed":false,"internalType":"uint256"}],"anonymous":false},{"type":"event","name":"InterestAndFeesAccrued","inputs":[{"name":"fromTimestamp","type":"uint256","indexed":false,"internalType":"uint256"},{"name":"toTimestamp","type":"uint256","indexed":false,"internalType":"uint256"},{"name":"scaleFactor","type":"uint256","indexed":false,"internalType":"uint256"},{"name":"baseInterestRay","type":"uint256","indexed":false,"internalType":"uint256"},{"name":"delinquencyFeeRay","type":"uint256","indexed":false,"internalType":"uint256"},{"name":"protocolFees","type":"uint256","indexed":false,"internalType":"uint256"}],"anonymous":false},{"type":"event","name":"MarketClosed","inputs":[{"name":"timestamp","type":"uint256","indexed":false,"internalType":"uint256"}],"anonymous":false},{"type":"event","name":"MaxTotalSupplyUpdated","inputs":[{"name":"assets","type":"uint256","indexed":false,"internalType":"uint256"}],"anonymous":false},{"type":"event","name":"ReserveRatioBipsUpdated","inputs":[{"name":"reserveRatioBipsUpdated","type":"uint256","indexed":false,"internalType":"uint256"}],"anonymous":false},{"type":"event","name":"SanctionedAccountAssetsQueuedForWithdrawal","inputs":[{"name":"account","type":"address","indexed":true,"internalType":"address"},{"name":"expiry","type":"uint256","indexed":false,"internalType":"uint256"},{"name":"scaledAmount","type":"uint256","indexed":false,"internalType":"uint256"},{"name":"normalizedAmount","type":"uint256","indexed":false,"internalType":"uint256"}],"anonymous":false},{"type":"event","name":"SanctionedAccountAssetsSentToEscrow","inputs":[{"name":"account","type":"address","indexed":true,"internalType":"address"},{"name":"escrow","type":"address","indexed":false,"internalType":"address"},{"name":"amount","type":"uint256","indexed":false,"internalType":"uint256"}],"anonymous":false},{"type":"event","name":"SanctionedAccountWithdrawalSentToEscrow","inputs":[{"name":"account","type":"address","indexed":true,"internalType":"address"},{"name":"escrow","type":"address","indexed":false,"internalType":"address"},{"name":"expiry","type":"uint32","indexed":false,"internalType":"uint32"},{"name":"amount","type":"uint256","indexed":false,"internalType":"uint256"}],"anonymous":false},{"type":"event","name":"StateUpdated","inputs":[{"name":"scaleFactor","type":"uint256","indexed":false,"internalType":"uint256"},{"name":"isDelinquent","type":"bool","indexed":false,"internalType":"bool"}],"anonymous":false},{"type":"event","name":"Transfer","inputs":[{"name":"from","type":"address","indexed":true,"internalType":"address"},{"name":"to","type":"address","indexed":true,"internalType":"address"},{"name":"value","type":"uint256","indexed":false,"internalType":"uint256"}],"anonymous":false},{"type":"event","name":"WithdrawalBatchClosed","inputs":[{"name":"expiry","type":"uint256","indexed":true,"internalType":"uint256"}],"anonymous":false},{"type":"event","name":"WithdrawalBatchCreated","inputs":[{"name":"expiry","type":"uint256","indexed":true,"internalType":"uint256"}],"anonymous":false},{"type":"event","name":"WithdrawalBatchExpired","inputs":[{"name":"expiry","type":"uint256","indexed":true,"internalType":"uint256"},{"name":"scaledTotalAmount","type":"uint256","indexed":false,"internalType":"uint256"},{"name":"scaledAmountBurned","type":"uint256","indexed":false,"internalType":"uint256"},{"name":"normalizedAmountPaid","type":"uint256","indexed":false,"internalType":"uint256"}],"anonymous":false},{"type":"event","name":"WithdrawalBatchPayment","inputs":[{"name":"expiry","type":"uint256","indexed":true,"internalType":"uint256"},{"name":"scaledAmountBurned","type":"uint256","indexed":false,"internalType":"uint256"},{"name":"normalizedAmountPaid","type":"uint256","indexed":false,"internalType":"uint256"}],"anonymous":false},{"type":"event","name":"WithdrawalExecuted","inputs":[{"name":"expiry","type":"uint256","indexed":true,"internalType":"uint256"},{"name":"account","type":"address","indexed":true,"internalType":"address"},{"name":"normalizedAmount","type":"uint256","indexed":false,"internalType":"uint256"}],"anonymous":false},{"type":"event","name":"WithdrawalQueued","inputs":[{"name":"expiry","type":"uint256","indexed":true,"internalType":"uint256"},{"name":"account","type":"address","indexed":true,"internalType":"address"},{"name":"scaledAmount","type":"uint256","indexed":false,"internalType":"uint256"},{"name":"normalizedAmount","type":"uint256","indexed":false,"internalType":"uint256"}],"anonymous":false},{"type":"error","name":"AccountBlocked","inputs":[]},{"type":"error","name":"AnnualInterestBipsTooHigh","inputs":[]},{"type":"error","name":"AprChangeOnClosedMarket","inputs":[]},{"type":"error","name":"BadLaunchCode","inputs":[]},{"type":"error","name":"BadRescueAsset","inputs":[]},{"type":"error","name":"BorrowAmountTooHigh","inputs":[]},{"type":"error","name":"BorrowFromClosedMarket","inputs":[]},{"type":"error","name":"BorrowWhileSanctioned","inputs":[]},{"type":"error","name":"CapacityChangeOnClosedMarket","inputs":[]},{"type":"error","name":"CloseMarketWithUnpaidWithdrawals","inputs":[]},{"type":"error","name":"DepositToClosedMarket","inputs":[]},{"type":"error","name":"FIFOQueueOutOfBounds","inputs":[]},{"type":"error","name":"InsufficientReservesForFeeWithdrawal","inputs":[]},{"type":"error","name":"InsufficientReservesForNewLiquidityRatio","inputs":[]},{"type":"error","name":"InsufficientReservesForOldLiquidityRatio","inputs":[]},{"type":"error","name":"InvalidArrayLength","inputs":[]},{"type":"error","name":"MarketAlreadyClosed","inputs":[]},{"type":"error","name":"MaxSupplyExceeded","inputs":[]},{"type":"error","name":"NoReentrantCalls","inputs":[]},{"type":"error","name":"NotApprovedBorrower","inputs":[]},{"type":"error","name":"NotApprovedLender","inputs":[]},{"type":"error","name":"NotController","inputs":[]},{"type":"error","name":"NullBurnAmount","inputs":[]},{"type":"error","name":"NullFeeAmount","inputs":[]},{"type":"error","name":"NullMintAmount","inputs":[]},{"type":"error","name":"NullRepayAmount","inputs":[]},{"type":"error","name":"NullTransferAmount","inputs":[]},{"type":"error","name":"NullWithdrawalAmount","inputs":[]},{"type":"error","name":"RepayToClosedMarket","inputs":[]},{"type":"error","name":"ReserveRatioBipsTooHigh","inputs":[]},{"type":"error","name":"SphereXOperatorRequired","inputs":[]},{"type":"error","name":"WithdrawalBatchNotExpired","inputs":[]}],"bytecode":{"object":"0x6102606040523461020a5761001261020e565b604051615a83908161045c82396080518181816112cc01526113f3015260a051818181610f2e015281816110c3015281816115d301528181611e48015281816121f6015281816124e601528181612685015281816129e30152818161382301528181613b4c01528181613d830152818161423a015261460c015260c05181818161247e01528181612b0501528181614b0f0152615500015260e0518181816104420152818161107e01528181611b5601528181612165015281816124340152818161297c01528181614ae101526154ad0152610100518181816111fe01526125ec015261012051818181611f850152818161324a0152818161335001528181613676015261376c015261014051818181611257015281816132290152818161332f01528181613655015261374b015261016051818181611386015281816132080152818161330e01528181613634015261372a015261018051818181611d6e015261444b01526101a05181610df001526101c05181818161048501528181610ebc01528181610fb60152818161160a015281816123d0015281816125110152818161260d01528181612b3d015281816137d401528181613e4f01528181613e860152818161463801526154d401526101e0518161068e015261020051816106b201526102205181611cee01526102405181611d120152f35b5f80fd5b6103ae6103a961021c610433565b80516001600160a01b0316906101c091825261039861023f602083015160ff1690565b6101a0908152826103876103706040830151936101e09485528361037961037060608301519761020098895260808401519b6102209c8d5260a0850151610240908152610120916102bf6102b86102ad6102a1868b015160018060801b031690565b6001600160801b031690565b9289015161ffff1690565b61ffff1690565b6102d36102b8610160809a015161ffff1690565b60089290921b5f554260b01b60309190911b1760209190911b17676765c793fa10079d605b1b1760035589015160a052610100808a01516001600160a01b031660c09081528a01516001600160a01b031660e09081528a01516001600160a01b031690526101409061034c6102b8838c015161ffff1690565b90526103626102b8610180809b015161ffff1690565b90528a015163ffffffff1690565b63ffffffff1690565b905286015163ffffffff1690565b90528201516001600160a01b031690565b60805201516001600160a01b031690565b6103b0565b565b60018060a01b03608051165f80526020527f2ac55ae7ba47db34b5334622acafeb34a65daf143b47019273185d64c73a35a560405fa1807f1777adabd324f814e2b0e28f6edf876dce01d7d66358c9acfe87b1b5f38338d5556020527ff33499cccaa0611882086224cc48cd82ef54b66a4d2edf4ed67108dd516896d560405fa1565b6040516102608082016040526304032dbb5f5280826004601c335afa903d14161561020a579056fe60806040526004361015610011575f80fd5b5f3560e01c8062ae3bf8146103de57806301e1d114146103d957806302372c4f146103d457806306fdde03146103cf578063088fee5e146103ca578063095ea7b3146103c55780630c1e3fea146103c05780630c3f6acf146103bb5780630cd1a5b6146103b657806311057cd0146103b157806314a1c32d146103ac57806318160ddd146103a757806319521311146103a25780631d8557d71461039d5780631da24f3e146103985780631e3cef531461039357806323b872dd1461038e5780632ab4d05214610389578063313ce5671461038457806334bca29c1461037f578063371fd8e61461037a57806338d52e0f146103755780633c231166146103705780633f3e4c111461036b57806346904840146103665780634be687c6146103615780634c6c848f1461035c578063514a4cd61461035757806354635570146102bc57806354b302c51461035257806354fd4d501461034d5780636731ba6d14610348578063683dd191146103435780636b174f351461033e57806370a08231146103395780637243d96c14610334578063739ccdd31461032f578063740588591461032a57806376636017146103255780637df1f1b914610320578063878eb9211461031b57806395d89b41146103165780639e6f980214610311578063a9059cbb1461030c578063abadbf1614610307578063b1bf962d14610302578063b67afb33146102fd578063b68ce7a2146102f8578063b6b55f25146102f3578063c2b6b58c146102ee578063c511ed5e146102e9578063c5ebeaec146102e4578063c8796572146102df578063cd7033c4146102da578063d98e0fe8146102d5578063dbcd50b4146102d0578063dcd549d4146102cb578063dd62ed3e146102c6578063e5adc635146102c1578063e7e5db4f146102bc5763f58c251c146102b7575f80fd5b612abb565b6113a9565b61293b565b612880565b61277e565b6126ea565b6126a8565b612650565b612549565b612400565b612135565b6120f6565b612097565b612050565b611ff8565b611fa8565b611f50565b611d91565b611d39565b611cb6565b611bbb565b611b0c565b611aaa565b611952565b61189c565b6117f9565b611770565b61168f565b61163d565b61149b565b611459565b611417565b611351565b61127a565b611222565b6111b4565b61104a565b610fda565b610f6c565b610e6c565b610e14565b610db9565b610d6a565b610c50565b610beb565b610b6d565b610b21565b610aa7565b610a48565b6109fe565b6109bd565b61095d565b61090f565b6108cb565b610858565b6106d9565b610656565b6105b8565b610524565b610405565b73ffffffffffffffffffffffffffffffffffffffff81160361040157565b5f80fd5b346104015760207ffffffffffffffffffffffffffffffffffffffffffffffffffffffffffffffffc36011261040157600435610440816103e3565b7f000000000000000000000000000000000000000000000000000000000000000033186105175773ffffffffffffffffffffffffffffffffffffffff808216308114917f000000000000000000000000000000000000000000000000000000000000000016141761050a576370a082315f5230602052602060346024601c845afa601f3d1116156104fd575f6044601082602094336014526fa9059cbb00000000000000000000000082525af13d1560015f51141716156104fd57005b6390b8ec185f526004601cfd5b6311530cde5f526004601cfd5b6302171e6a5f526004601cfd5b34610401575f7ffffffffffffffffffffffffffffffffffffffffffffffffffffffffffffffffc36011261040157602061055c612b29565b604051908152f35b63ffffffff81160361040157565b7ffffffffffffffffffffffffffffffffffffffffffffffffffffffffffffffffc6040910112610401576004356105a8816103e3565b906024356105b581610564565b90565b346104015760406105c836610572565b61061a6105d3612ba7565b925f845263ffffffff60208501935f85526105ec6130f5565b165f526008602052845f209073ffffffffffffffffffffffffffffffffffffffff165f5260205260405f2090565b54906cffffffffffffffffffffffffff82168093526fffffffffffffffffffffffffffffffff809260681c168152835192835251166020820152f35b34610401575f7ffffffffffffffffffffffffffffffffffffffffffffffffffffffffffffffffc3601126104015760205f525f6020527f0000000000000000000000000000000000000000000000000000000000000000603f527f0000000000000000000000000000000000000000000000000000000000000000605f5260805ff35b34610401576106e736610572565b906106f06130f5565b63ffffffff91828116914283101561084b5761076f61076a6107f99261080e966107fe9661071c61310e565b939150610727612c71565b50160361081257610747909563ffffffff165f52600860205260405f2090565b9073ffffffffffffffffffffffffffffffffffffffff165f5260205260405f2090565b612cd1565b916107a561079060208501516fffffffffffffffffffffffffffffffff1690565b6fffffffffffffffffffffffffffffffff1690565b926107e06107cc6107cc61079060408601516fffffffffffffffffffffffffffffffff1690565b92516cffffffffffffffffffffffffff1690565b6cffffffffffffffffffffffffff8091169216906133cc565b612d37565b6040519081529081906020820190565b0390f35b506107476108366108318763ffffffff165f52600760205260405f2090565b612c8b565b9563ffffffff165f52600860205260405f2090565b632561b8805f526004601cfd5b346104015760407ffffffffffffffffffffffffffffffffffffffffffffffffffffffffffffffffc360112610401576108b9600435610896816103e3565b61089e613400565b6108b46108a961341a565b91602435903361345e565b6150f9565b5f63929eee145d602060405160018152f35b34610401575f7ffffffffffffffffffffffffffffffffffffffffffffffffffffffffffffffffc36011261040157610901612d44565b506101a061090d612d9f565bf35b34610401575f7ffffffffffffffffffffffffffffffffffffffffffffffffffffffffffffffffc36011261040157610945612d44565b5061094e6130f5565b6101a061095961310e565b5050f35b34610401575f7ffffffffffffffffffffffffffffffffffffffffffffffffffffffffffffffffc360112610401576109936130f5565b60206fffffffffffffffffffffffffffffffff60406109b061310e565b5050015116604051908152f35b34610401575f7ffffffffffffffffffffffffffffffffffffffffffffffffffffffffffffffffc36011261040157602060035461ffff60405191831c168152f35b34610401575f7ffffffffffffffffffffffffffffffffffffffffffffffffffffffffffffffffc36011261040157610a346130f5565b602061055c610a4161310e565b50506134d4565b34610401575f7ffffffffffffffffffffffffffffffffffffffffffffffffffffffffffffffffc36011261040157610a7e6130f5565b602061055c610a8b61310e565b50506cffffffffffffffffffffffffff60808201511690614497565b34610401575f7ffffffffffffffffffffffffffffffffffffffffffffffffffffffffffffffffc36011261040157610add613400565b610b18610ae861341a565b6108b4610af3613525565b610b13610aff826134d4565b610b07612b29565b808203911102826137c0565b6138bf565b5f63929eee145d005b34610401575f7ffffffffffffffffffffffffffffffffffffffffffffffffffffffffffffffffc36011261040157610b57613400565b610b18610b6261341a565b6108b4610b13613525565b346104015760207ffffffffffffffffffffffffffffffffffffffffffffffffffffffffffffffffc3601126104015773ffffffffffffffffffffffffffffffffffffffff600435610bbd816103e3565b610bc56130f5565b165f52600460205260206cffffffffffffffffffffffffff60405f205416604051908152f35b34610401575f7ffffffffffffffffffffffffffffffffffffffffffffffffffffffffffffffffc360112610401576020610c36610c2661310e565b5050610c30612b29565b90613a3b565b6fffffffffffffffffffffffffffffffff60405191168152f35b346104015760607ffffffffffffffffffffffffffffffffffffffffffffffffffffffffffffffffc36011261040157600435610c8b816103e3565b602435610c97816103e3565b604435610ca2613400565b610caa61341a565b9173ffffffffffffffffffffffffffffffffffffffff84165f526009602052610cf360405f203373ffffffffffffffffffffffffffffffffffffffff165f5260205260405f2090565b547fffffffffffffffffffffffffffffffffffffffffffffffffffffffffffffffff8103610d3e575b50906108b491610d2b94613afe565b5f63929eee145d60405160018152602090f35b9190818303928311610d6557610d2b94610d5c6108b494338361345e565b94509091610d1c565b612d0a565b34610401575f7ffffffffffffffffffffffffffffffffffffffffffffffffffffffffffffffffc3601126104015760206fffffffffffffffffffffffffffffffff5f5460081c16604051908152f35b34610401575f7ffffffffffffffffffffffffffffffffffffffffffffffffffffffffffffffffc36011261040157602060405160ff7f0000000000000000000000000000000000000000000000000000000000000000168152f35b34610401576020610e5d610e2736610572565b9190610e31613400565b6108b4610e57610e3f61341a565b92610e48613525565b9560445f523615519187613c8e565b936138bf565b5f63929eee145d604051908152f35b346104015760207ffffffffffffffffffffffffffffffffffffffffffffffffffffffffffffffffc36011261040157600435610ea6613400565b610eae61341a565b8115610f5f57610ee08230337f0000000000000000000000000000000000000000000000000000000000000000613ecb565b815f52337fe8b606ac1e5df7657db58d297ca8f41c090fc94c5fd2d6958f043e41736e9fa660205fa2610f11613525565b918251610f5257610b1892610b136108b49260245f5282361551917f0000000000000000000000000000000000000000000000000000000000000000613f4a565b6361d1bc8f5f526004601cfd5b637e0820885f526004601cfd5b34610401575f7ffffffffffffffffffffffffffffffffffffffffffffffffffffffffffffffffc36011261040157602060405173ffffffffffffffffffffffffffffffffffffffff7f0000000000000000000000000000000000000000000000000000000000000000168152f35b34610401575f7ffffffffffffffffffffffffffffffffffffffffffffffffffffffffffffffffc3601126104015760207f1777adabd324f814e2b0e28f6edf876dce01d7d66358c9acfe87b1b5f38338d55473ffffffffffffffffffffffffffffffffffffffff60405191168152f35b346104015760207ffffffffffffffffffffffffffffffffffffffffffffffffffffffffffffffffc360112610401576004357f00000000000000000000000000000000000000000000000000000000000000003318610517576110ab613400565b6110b361341a565b6110bb613525565b80516111a7577f000000000000000000000000000000000000000000000000000000000000000060018160571c1661112e575b508261111f6108b492610b1361110661112497613fb0565b6fffffffffffffffffffffffffffffffff166020830152565b613fcf565b61112c613411565b005b5f80917fffffffffffffffffffffffffffffffffffffffffffffffffffffffffffffffdc36019082601c60405193637a2c09ae85528960208601526101a088604087015e6101e0908180870152806102008701526024610220870137360193019160601c5af11561119f575f6110ee565b3d5f803e3d5ffd5b6381b210785f526004601cfd5b34610401575f7ffffffffffffffffffffffffffffffffffffffffffffffffffffffffffffffffc36011261040157602060405173ffffffffffffffffffffffffffffffffffffffff7f0000000000000000000000000000000000000000000000000000000000000000168152f35b34610401575f7ffffffffffffffffffffffffffffffffffffffffffffffffffffffffffffffffc3601126104015760206040517f00000000000000000000000000000000000000000000000000000000000000008152f35b346104015760207ffffffffffffffffffffffffffffffffffffffffffffffffffffffffffffffffc360112610401576004356112b5816103e3565b73ffffffffffffffffffffffffffffffffffffffff7f0000000000000000000000000000000000000000000000000000000000000000163303611344577f1777adabd324f814e2b0e28f6edf876dce01d7d66358c9acfe87b1b5f38338d581815491555f526020527ff33499cccaa0611882086224cc48cd82ef54b66a4d2edf4ed67108dd516896d560405fa1005b634ee0b8f85f526004601cfd5b34610401575f7ffffffffffffffffffffffffffffffffffffffffffffffffffffffffffffffffc3601126104015760206040517f00000000000000000000000000000000000000000000000000000000000000008152f35b34610401575f7ffffffffffffffffffffffffffffffffffffffffffffffffffffffffffffffffc36011261040157602060405173ffffffffffffffffffffffffffffffffffffffff7f0000000000000000000000000000000000000000000000000000000000000000168152f35b34610401575f7ffffffffffffffffffffffffffffffffffffffffffffffffffffffffffffffffc36011261040157602061055c61145261310e565b5050613ff8565b34610401575f7ffffffffffffffffffffffffffffffffffffffffffffffffffffffffffffffffc360112610401575f6040526101326041526020805260606020f35b346104015760407ffffffffffffffffffffffffffffffffffffffffffffffffffffffffffffffffc360112610401576004356114d5613400565b6114dd61341a565b8115159182611602575b6114ef613525565b926114fa8451151590565b6115fd576115be575b5061155561150f612b29565b61154f61079061153260608701516fffffffffffffffffffffffffffffffff1690565b60408701516fffffffffffffffffffffffffffffffff1690612eba565b90612d37565b9061157261156461079061402d565b602435818082039110020190565b5f925b8161157f85612ede565b9410806115b5575b156115a8578061159a6115a3928761404f565b80820391110290565b611575565b611124836108b4876138bf565b50801515611587565b6115f790836115d060445f5236155190565b917f0000000000000000000000000000000000000000000000000000000000000000613f4a565b5f611503565b610f52565b61162e8130337f0000000000000000000000000000000000000000000000000000000000000000613ecb565b6116388133613f20565b6114e7565b34610401575f7ffffffffffffffffffffffffffffffffffffffffffffffffffffffffffffffffc360112610401576116736130f5565b60206dffffffffffffffffffffffffffff6101606109b061310e565b346104015760207ffffffffffffffffffffffffffffffffffffffffffffffffffffffffffffffffc360112610401576004356116c9613400565b6116d161341a565b6116d9613525565b916116f96dffffffffffffffffffffffffffff61016085015116826155db565b6117146cffffffffffffffffffffffffff821680921461559c565b80156117635761080e936117459261173f9261172f336141b3565b9260245f52361551933391614217565b916150f9565b5f63929eee145d60405163ffffffff90911681529081906020820190565b63d61c50f85f526004601cfd5b346104015760207ffffffffffffffffffffffffffffffffffffffffffffffffffffffffffffffffc36011261040157602061055c6004356117b0816103e3565b6117b86130f5565b73ffffffffffffffffffffffffffffffffffffffff6117d561310e565b505091165f52600483526cffffffffffffffffffffffffff60405f20541690614497565b34610401575f7ffffffffffffffffffffffffffffffffffffffffffffffffffffffffffffffffc3601126104015761182f613400565b61183761341a565b61183f613525565b90611849336141b3565b916cffffffffffffffffffffffffff83511680156117635761080e938261173f9261188c6dffffffffffffffffffffffffffff61016061174597015116826156c7565b9160045f52361551933391614217565b34610401575f7ffffffffffffffffffffffffffffffffffffffffffffffffffffffffffffffffc360112610401576118d26130f5565b602061055c6118df61310e565b50506144b7565b9181601f840112156104015782359167ffffffffffffffff8311610401576020808501948460051b01011161040157565b60209060206040818301928281528551809452019301915f5b82811061193e575050505090565b835185529381019392810192600101611930565b346104015760407ffffffffffffffffffffffffffffffffffffffffffffffffffffffffffffffffc3601126104015767ffffffffffffffff600435818111610401576119a29036906004016118e6565b9091602435908111610401576119bc9036906004016118e6565b9190926119c7613400565b6119cf61341a565b93838303611a9d576119e86119e384612f0b565b612c2d565b938385527fffffffffffffffffffffffffffffffffffffffffffffffffffffffffffffffe0611a1685612f0b565b01366020870137611a25613525565b935f5b818110611a545761080e87611a408a6108b48a6138bf565b611a48613411565b60405191829182611917565b80611a8c611a656001938589612f50565b35611a6f816103e3565b611a7a838789612f50565b35611a8481610564565b36918a613c8e565b611a96828a612f65565b5201611a28565b639d89020a5f526004601cfd5b34610401575f7ffffffffffffffffffffffffffffffffffffffffffffffffffffffffffffffffc36011261040157611ae06130f5565b6020611aea61310e565b5050611afd611af7612b29565b916144b7565b90604051918082039111028152f35b34610401575f7ffffffffffffffffffffffffffffffffffffffffffffffffffffffffffffffffc36011261040157602060405173ffffffffffffffffffffffffffffffffffffffff7f0000000000000000000000000000000000000000000000000000000000000000168152f35b60209060206040818301928281528551809452019301915f5b828110611ba1575050505090565b835163ffffffff1685529381019392810192600101611b93565b34610401575f7ffffffffffffffffffffffffffffffffffffffffffffffffffffffffffffffffc36011261040157611bf16130f5565b6005546fffffffffffffffffffffffffffffffff81169060801c818103908111610d6557611c216119e382612f0b565b918183527fffffffffffffffffffffffffffffffffffffffffffffffffffffffffffffffe0611c4f83612f0b565b013660208501375f5b828110611c6d576040518061080e8682611b7a565b80611cb0611c9b611c91611c8360019587612f79565b5f52600660205260405f2090565b5463ffffffff1690565b611ca58388612f65565b9063ffffffff169052565b01611c58565b34610401575f7ffffffffffffffffffffffffffffffffffffffffffffffffffffffffffffffffc3601126104015760205f525f6020527f0000000000000000000000000000000000000000000000000000000000000000603f527f0000000000000000000000000000000000000000000000000000000000000000605f5260805ff35b34610401575f7ffffffffffffffffffffffffffffffffffffffffffffffffffffffffffffffffc3601126104015760206040517f00000000000000000000000000000000000000000000000000000000000000008152f35b346104015760407ffffffffffffffffffffffffffffffffffffffffffffffffffffffffffffffffc36011261040157600435611dcc816103e3565b60243590611dd8613400565b611de061341a565b90611de9613525565b92611e096dffffffffffffffffffffffffffff61016086015116826155db565b916cffffffffffffffffffffffffff92611e2784821680921461559c565b8015611f435785610b1382611ed16108b497611e6c6108b99b611f3d9789337f0000000000000000000000000000000000000000000000000000000000000000615359565b611e75336141b3565b9080611e848582855116613a72565b168252335f9081526004602052604090205b9151166cffffffffffffffffffffffffff167fffffffffffffffffffffffffffffffffffffff00000000000000000000000000825416179055565b611f10611efd611ee0876141b3565b92611ef884516cffffffffffffffffffffffffff1690565b613add565b6cffffffffffffffffffffffffff168252565b611f388573ffffffffffffffffffffffffffffffffffffffff165f52600460205260405f2090565b613a91565b336153f7565b63ddee9b305f526004601cfd5b34610401575f7ffffffffffffffffffffffffffffffffffffffffffffffffffffffffffffffffc3601126104015760206040517f00000000000000000000000000000000000000000000000000000000000000008152f35b34610401575f7ffffffffffffffffffffffffffffffffffffffffffffffffffffffffffffffffc36011261040157611fde6130f5565b60206cffffffffffffffffffffffffff60806109b061310e565b34610401575f7ffffffffffffffffffffffffffffffffffffffffffffffffffffffffffffffffc3601126104015761202e613400565b610b1861203961341a565b6108b4612044613525565b610b13610aff826144b7565b346104015760207ffffffffffffffffffffffffffffffffffffffffffffffffffffffffffffffffc36011261040157602061208961341a565b61055c61173f60043561456d565b346104015760207ffffffffffffffffffffffffffffffffffffffffffffffffffffffffffffffffc360112610401576004356120d161341a565b906120db8161456d565b036120e95761112c906150f9565b638a164f635f526004601cfd5b34610401575f7ffffffffffffffffffffffffffffffffffffffffffffffffffffffffffffffffc36011261040157602060ff5f54166040519015158152f35b34610401575f7ffffffffffffffffffffffffffffffffffffffffffffffffffffffffffffffffc360112610401577f000000000000000000000000000000000000000000000000000000000000000080331861051757612193613400565b61219b61341a565b6121a3613525565b916121ae8351151590565b6123fb57612258906121be612b29565b906121c8856134d4565b90818310156123ab5750906121e0816121f093612d37565b906121eb82876137c0565b612f79565b61221a847f000000000000000000000000000000000000000000000000000000000000000061471e565b5f610120850152600184526127106101408501525f61010085015261154f61079061153260608701516fffffffffffffffffffffffffffffffff1690565b60c083015163ffffffff16806122e2575b5061227561079061402d565b905f905b8282106122ca575050506cffffffffffffffffffffffffff6122ab60a08401516cffffffffffffffffffffffffff1690565b166122c5576122bc611124926138bf565b6108b4426149b3565b6149a6565b6122da8161154f6001938861404f565b910190612279565b6122fd6108318263ffffffff165f52600760205260405f2090565b60208101516cffffffffffffffffffffffffff166cffffffffffffffffffffffffff61234b61233984516cffffffffffffffffffffffffff1690565b6cffffffffffffffffffffffffff1690565b911610612359575b50612269565b61239f61238a846fffffffffffffffffffffffffffffffff61238186976123a4978b88614793565b90501690612d37565b9363ffffffff165f52600760205260405f2090565b612f86565b5f80612353565b908083116123bb575b50506121f0565b916107f96123cc6123f49483612d37565b80937f00000000000000000000000000000000000000000000000000000000000000006146e4565b5f806123b4565b6146d7565b346104015760207ffffffffffffffffffffffffffffffffffffffffffffffffffffffffffffffffc360112610401576004357f000000000000000000000000000000000000000000000000000000000000000080331861051757612462613400565b61246a61341a565b906395c098395f5260205260205f6024601c7f00000000000000000000000000000000000000000000000000000000000000005afa60203d14161561119f575f51612544576124b7613525565b805161253f576124ce6124c8612b29565b82614564565b831161253a57826125358261250a6108b494611124977f0000000000000000000000000000000000000000000000000000000000000000614a03565b610b1383337f00000000000000000000000000000000000000000000000000000000000000006146e4565b614a81565b6149f6565b6149e9565b6149dc565b34610401575f7ffffffffffffffffffffffffffffffffffffffffffffffffffffffffffffffffc3601126104015761257f613400565b61258761341a565b61258f613525565b9060408201916fffffffffffffffffffffffffffffffff908184511615612643576125c16125bb612b29565b82613a3b565b8281169182156126365785846125e3612631946108b4976111249a5116613065565b169052610b13837f00000000000000000000000000000000000000000000000000000000000000007f00000000000000000000000000000000000000000000000000000000000000006146e4565b614aaa565b63f784cfa45f526004601cfd5b6345c835cb5f526004601cfd5b34610401575f7ffffffffffffffffffffffffffffffffffffffffffffffffffffffffffffffffc3601126104015760206040517f00000000000000000000000000000000000000000000000000000000000000008152f35b34610401575f7ffffffffffffffffffffffffffffffffffffffffffffffffffffffffffffffffc36011261040157602061ffff60035460301c16604051908152f35b346104015760207ffffffffffffffffffffffffffffffffffffffffffffffffffffffffffffffffc36011261040157606061273f60043561272a81610564565b612732612c71565b61273a6130f5565b613087565b6fffffffffffffffffffffffffffffffff60408051926cffffffffffffffffffffffffff80825116855260208201511660208501520151166040820152f35b346104015760207ffffffffffffffffffffffffffffffffffffffffffffffffffffffffffffffffc360112610401576004356127b9816103e3565b6127c1613400565b6127c961341a565b6127d282614ad3565b15612873576108b4611124926127e6613525565b9073ffffffffffffffffffffffffffffffffffffffff81165f52600460205260405f206cffffffffffffffffffffffffff61281f612bcc565b91541680825280612833575b5050506138bf565b61286b926128656128596dffffffffffffffffffffffffffff61016088015116846156c7565b9384848436938a614217565b90615853565b5f808061282b565b63a97ab1675f526004601cfd5b346104015760407ffffffffffffffffffffffffffffffffffffffffffffffffffffffffffffffffc3601126104015760206129106004356128c0816103e3565b73ffffffffffffffffffffffffffffffffffffffff602435916128e2836103e3565b165f526009835260405f209073ffffffffffffffffffffffffffffffffffffffff165f5260205260405f2090565b54604051908152f35b6004359061ffff8216820361040157565b6024359061ffff8216820361040157565b346104015760407ffffffffffffffffffffffffffffffffffffffffffffffffffffffffffffffffc36011261040157612972612919565b61297a61292a565b7f00000000000000000000000000000000000000000000000000000000000000003318610517576129a9613400565b6129b161341a565b906129ba613525565b8051612ab657612a07816101408101936129e06129d9865161ffff1690565b61ffff1690565b967f0000000000000000000000000000000000000000000000000000000000000000614b4f565b61ffff95918681169461271097888711612ab1578316978811612aac57838810612a90575b612a4992612a3d919061ffff169052565b61ffff16610120840152565b8411612a6e575b92612a696108b492612a64611124966138bf565b614c20565b614c49565b92612a78846144b7565b612a80612b29565b10612a8b5792612a50565b614c13565b612a99856144b7565b612aa1612b29565b1015612a2c57614c06565b614bf9565b614bec565b614b42565b34610401575f7ffffffffffffffffffffffffffffffffffffffffffffffffffffffffffffffffc36011261040157602060405173ffffffffffffffffffffffffffffffffffffffff7f0000000000000000000000000000000000000000000000000000000000000000168152f35b6370a082315f523060205260205f6024601c7f00000000000000000000000000000000000000000000000000000000000000005afa601f3d111615612b6d575f5190565b634963f6d55f526004601cfd5b7f4e487b71000000000000000000000000000000000000000000000000000000005f52604160045260245ffd5b604051906040820182811067ffffffffffffffff821117612bc757604052565b612b7a565b604051906020820182811067ffffffffffffffff821117612bc757604052565b604051906060820182811067ffffffffffffffff821117612bc757604052565b604051906101a0820182811067ffffffffffffffff821117612bc757604052565b907fffffffffffffffffffffffffffffffffffffffffffffffffffffffffffffffe0601f604051930116820182811067ffffffffffffffff821117612bc757604052565b612c79612bec565b905f82525f60208301525f6040830152565b906fffffffffffffffffffffffffffffffff6001612ca7612bec565b9380546cffffffffffffffffffffffffff90818116875260681c1660208601520154166040830152565b906fffffffffffffffffffffffffffffffff612ceb612ba7565b92546cffffffffffffffffffffffffff8116845260681c166020830152565b7f4e487b71000000000000000000000000000000000000000000000000000000005f52601160045260245ffd5b91908203918211610d6557565b612d4c612c0c565b905f82525f60208301525f60408301525f60608301525f60808301525f60a08301525f60c08301525f60e08301525f6101008301525f6101208301525f6101408301525f6101608301525f610180830152565b612da7612c0c565b90612ded5f54612dbc60ff8216859015159052565b60081c6fffffffffffffffffffffffffffffffff9081166020850152600154908116604085015260801c6060840152565b6002546cffffffffffffffffffffffffff8082166080850152606882901c1660a084015263ffffffff60d082901c811660c0850152612e9791612e3a9060ff9060f01c16151560e0860152565b60035463ffffffff8282161661010086015261ffff602082901c8116610120870152603082901c16610140860152604081901c6dffffffffffffffffffffffffffff1661016086015260b01c1661018084019063ffffffff169052565b565b9060016fffffffffffffffffffffffffffffffff80931601918211610d6557565b9190916fffffffffffffffffffffffffffffffff80809416911601918211610d6557565b7fffffffffffffffffffffffffffffffffffffffffffffffffffffffffffffffff8114610d655760010190565b67ffffffffffffffff8111612bc75760051b60200190565b7f4e487b71000000000000000000000000000000000000000000000000000000005f52603260045260245ffd5b9190811015612f605760051b0190565b612f23565b8051821015612f605760209160051b010190565b91908201809211610d6557565b604060016fffffffffffffffffffffffffffffffff92612fea6cffffffffffffffffffffffffff86511682906cffffffffffffffffffffffffff167fffffffffffffffffffffffffffffffffffffff00000000000000000000000000825416179055565b60208501517fffffffffffff00000000000000000000000000ffffffffffffffffffffffffff79ffffffffffffffffffffffffff0000000000000000000000000083549260681b16911617815501920151167fffffffffffffffffffffffffffffffff00000000000000000000000000000000825416179055565b6fffffffffffffffffffffffffffffffff9182169082160391908211610d6557565b919061309161310e565b915063ffffffff8093169283151591168314166130f057505f5260076020526fffffffffffffffffffffffffffffffff600160405f2080546cffffffffffffffffffffffffff90818116875260681c1660208601520154166040830152565b925050565b63929eee145c61310157565b637fa8a9875f526004601cfd5b613116612d44565b505f613120612c71565b613128612d9f565b926131428460c063ffffffff910151168042119015151690565b613277575b61018084015163ffffffff904290821603613202575b60c085015163ffffffff169081166131725750565b925090506131916108318363ffffffff165f52600760205260405f2090565b906131ac60208301516cffffffffffffffffffffffffff1690565b6cffffffffffffffffffffffffff6131d461233985516cffffffffffffffffffffffffff1690565b9116106131dd57565b6131ef6131e8612b29565b8584614dc8565b806131f75750565b612e97908584614e51565b61326f427f00000000000000000000000000000000000000000000000000000000000000007f00000000000000000000000000000000000000000000000000000000000000007f000000000000000000000000000000000000000000000000000000000000000089614c72565b50505061315d565b91505060c0820161328c815163ffffffff1690565b916132ab6132a261018086015163ffffffff1690565b63ffffffff1690565b63ffffffff8416908103613308575b505f6132d76108318563ffffffff165f52600760205260405f2090565b926132ea6132e3612b29565b8786614dc8565b806132f7575b5052613147565b613302908786614e51565b5f6132f0565b613375907f00000000000000000000000000000000000000000000000000000000000000007f00000000000000000000000000000000000000000000000000000000000000007f000000000000000000000000000000000000000000000000000000000000000088614c72565b50506132ba565b906b033b2e3c9fd0803ce800000091817fffffffffffffffffffffffffffffffffffffffffffffffffffffffffffffffff0481118202158302156133bf57020490565b63ad251c275f526004601cfd5b817fffffffffffffffffffffffffffffffffffffffffffffffffffffffffffffffff0481118202158302156133bf57020490565b63929eee14805c613101576001905d565b5f63929eee145d565b604051608081019080821067ffffffffffffffff831117612bc7576105b59160405260608152606060208201525f60408201525f60608201525f3560e01c90615015565b909173ffffffffffffffffffffffffffffffffffffffff82165f526009602052806134aa8460405f209073ffffffffffffffffffffffffffffffffffffffff165f5260205260405f2090565b555f527f8c5be1e5ebec7d5bd14f71427d1e84f3dd0314c0f7b2291e5b200ac8c7c3b92560205fa3565b6134f16cffffffffffffffffffffffffff60808301511682614497565b906fffffffffffffffffffffffffffffffff90816060820151168301809311610d655760400151168101809111610d655790565b61352d612d44565b50613536612d9f565b906135508260c063ffffffff910151168042119015151690565b6136df575b61018082015163ffffffff9081164281900361362a575b5060c083015163ffffffff169081166135825750565b61359d6108318263ffffffff165f52600760205260405f2090565b60208101516cffffffffffffffffffffffffff166cffffffffffffffffffffffffff6135d961233984516cffffffffffffffffffffffffff1690565b9116106135e5575b5050565b6135f76135f0612b29565b8583614dc8565b8061360157505050565b8261361461239f92612e97958886614793565b505063ffffffff165f52600760205260405f2090565b6136d99061369b427f00000000000000000000000000000000000000000000000000000000000000007f00000000000000000000000000000000000000000000000000000000000000007f000000000000000000000000000000000000000000000000000000000000000089614c72565b926136d16136be6101608a95949501516dffffffffffffffffffffffffffff1690565b6dffffffffffffffffffffffffffff1690565b904290615167565b5f61356c565b6136f36132a260c084015163ffffffff1690565b6137086132a261018085015163ffffffff1690565b808203613720575b505061371b826151b1565b613555565b816137916137b9937f00000000000000000000000000000000000000000000000000000000000000007f00000000000000000000000000000000000000000000000000000000000000007f000000000000000000000000000000000000000000000000000000000000000089614c72565b9390926137b36136be6101608a01516dffffffffffffffffffffffffffff1690565b91615167565b5f80613710565b8115610f5f578051610f52576137f88230337f0000000000000000000000000000000000000000000000000000000000000000613ecb565b815f52337fe8b606ac1e5df7657db58d297ca8f41c090fc94c5fd2d6958f043e41736e9fa660205fa27f000000000000000000000000000000000000000000000000000000000000000091600183605a1c1661385357505050565b5f9283601c81946101a07ffffffffffffffffffffffffffffffffffffffffffffffffffffffffffffffffc36019160405196638db431c388526020880152604087015e6101e0808601526102009080828701526004610220870137360193019160601c5af11561119f57565b612e97906138cc816144b7565b6138d4612b29565b1060e08201819052908051151561390161079060208401516fffffffffffffffffffffffffffffffff1690565b60081b175f5561392761079060408301516fffffffffffffffffffffffffffffffff1690565b61394761079060608401516fffffffffffffffffffffffffffffffff1690565b60801b1760015561396b61233960808301516cffffffffffffffffffffffffff1690565b61398861233960a08401516cffffffffffffffffffffffffff1690565b61399c6132a260c085015163ffffffff1690565b9060681b9060d01b8460f01b1717176002556139c36132a261010083015163ffffffff1690565b6139d66129d961012084015161ffff1690565b6139e96129d961014085015161ffff1690565b90613a1e6132a2610180613a126136be6101608901516dffffffffffffffffffffffffffff1690565b96015163ffffffff1690565b9060201b9160301b908460401b9060b01b1717171760035561532d565b906fffffffffffffffffffffffffffffffff91826060820151168203918211610d6557604083910151169081808203911002011690565b6cffffffffffffffffffffffffff9182169082160391908211610d6557565b6cffffffffffffffffffffffffff612e979251166cffffffffffffffffffffffffff167fffffffffffffffffffffffffffffffffffffff00000000000000000000000000825416179055565b9190916cffffffffffffffffffffffffff80809416911601918211610d6557565b9190613b08613525565b92613b286dffffffffffffffffffffffffffff61016086015116846155db565b6cffffffffffffffffffffffffff613b4481831680931461559c565b8115611f43577f0000000000000000000000000000000000000000000000000000000000000000600181605c1c16613c06575b5094610b13613c0192613bca612e9798613b90876141b3565b9080613b9f8582855116613a72565b168252611e968873ffffffffffffffffffffffffffffffffffffffff165f52600460205260405f2090565b613bd9611efd611ee0886141b3565b611f388673ffffffffffffffffffffffffffffffffffffffff165f52600460205260405f2090565b6153f7565b5f80917fffffffffffffffffffffffffffffffffffffffffffffffffffffffffffffff9c9893983601906040519163c4a066bf83523360208401528760408401528860608401528660808401526101a08660a085015e6102408084015280610260840152606461028084013782601c610200360193019160601c5af11561119f57945f613b77565b90929192613cad6108318563ffffffff165f52600760205260405f2090565b9363ffffffff8116904282101580613eb4575b613eaf57613ce0836107478363ffffffff165f52600860205260405f2090565b94613d33613d5e613d0460408a01516fffffffffffffffffffffffffffffffff1690565b98613d536107908a54809c6cffffffffffffffffffffffffff968795516cffffffffffffffffffffffffff1690565b6fffffffffffffffffffffffffffffffff978896879216931691166133cc565b9960681c1689613065565b908116978815613eaa57606087613df5613e16936105b59b613da7613e2c988f9d8e8e7f000000000000000000000000000000000000000000000000000000000000000061542f565b907fffffff00000000000000000000000000000000ffffffffffffffffffffffffff7cffffffffffffffffffffffffffffffff0000000000000000000000000083549260681b169116179055565b0191613e1183516fffffffffffffffffffffffffffffffff1690565b613065565b6fffffffffffffffffffffffffffffffff169052565b83613e3684614ad3565b15613e7e57613e7991613e488561549f565b613e7383827f00000000000000000000000000000000000000000000000000000000000000006146e4565b85615537565b615571565b613e799150837f00000000000000000000000000000000000000000000000000000000000000006146e4565b615422565b61084b565b50613ec6613ec28551151590565b1590565b613cc0565b601c5f60649281946020966040519860605260405260601b602c526f23b872dd000000000000000000000000600c525af13d1560015f5114171615613f13575f606052604052565b637939f4245f526004601cfd5b905f527fe8b606ac1e5df7657db58d297ca8f41c090fc94c5fd2d6958f043e41736e9fa660205fa2565b600181605a1c16613f5c575b50505050565b5f601c6101a0829695868497360392839260405198638db431c38a5260208a0152604089015e6101e080880152816102008801526102208701376102040193019160601c5af11561119f575f808080613f56565b90612e976fffffffffffffffffffffffffffffffff831680931461559c565b5f527ff2672935fc79f5237559e2e2999dbe743bf65430894ac2b37666890e7c69e1af60205fa1565b61159a6fffffffffffffffffffffffffffffffff602083015116916cffffffffffffffffffffffffff60808201511690614497565b6105b56005546fffffffffffffffffffffffffffffffff81169060801c613065565b9190600554906fffffffffffffffffffffffffffffffff918281169060801c811461416d575f526006602052816140ae63ffffffff60405f20541692836140a76108318263ffffffff165f52600760205260405f2090565b9788614793565b905016936140ce8161239f8463ffffffff165f52600760205260405f2090565b6cffffffffffffffffffffffffff60208183511692015116146140ef575050565b600554918083169260801c831461416d5761413e83612e97945f52600660205260405f207fffffffffffffffffffffffffffffffffffffffffffffffffffffffff000000008154169055612e99565b167fffffffffffffffffffffffffffffffff0000000000000000000000000000000060055416176005556155b5565b60046040517f87274801000000000000000000000000000000000000000000000000000000008152fd5b90612e976cffffffffffffffffffffffffff831680931461559c565b905f6141bd612bcc565b5273ffffffffffffffffffffffffffffffffffffffff82165f52600460205261420460405f206cffffffffffffffffffffffffff6141f9612bcc565b915416815292614ad3565b61420a57565b636bc671fd5f526004601cfd5b9392959491906142a99061425e6cffffffffffffffffffffffffff8916948786867f0000000000000000000000000000000000000000000000000000000000000000615601565b614281611efd8961427c84516cffffffffffffffffffffffffff1690565b613a72565b611f388373ffffffffffffffffffffffffffffffffffffffff165f52600460205260405f2090565b6142b48330836153f7565b60c08401805163ffffffff169663ffffffff918289161561441e575b5093610b1393836143db936143d4612e97999861437161431e8e996107476143096108318d63ffffffff165f52600760205260405f2090565b9b63ffffffff165f52600860205260405f2090565b61433983611ef883546cffffffffffffffffffffffffff1690565b6cffffffffffffffffffffffffff167fffffffffffffffffffffffffffffffffffffff00000000000000000000000000825416179055565b6143a261438f82611ef88b516cffffffffffffffffffffffffff1690565b6cffffffffffffffffffffffffff168952565b6143c160a08b0191611ef883516cffffffffffffffffffffffffff1690565b6cffffffffffffffffffffffffff169052565b8a16615697565b6143ed6143e6612b29565b8483614dc8565b8061440c575b5061239f8663ffffffff165f52600760205260405f2090565b61441890878584614793565b506143f3565b92614488985093610b13946143db936143d48998946144796132a2614473614449612e979e51151590565b7f000000000000000000000000000000000000000000000000000000000000000090815f03020190565b42612f79565b9c8d8099611ca5868316615671565b949899505093509350936142d0565b906dffffffffffffffffffffffffffff6101606105b593015116906156c7565b6cffffffffffffffffffffffffff8060a08301511690608083015116818103908111610d65576144f19061ffff6101408501511690615716565b908101809111610d655761451b906dffffffffffffffffffffffffffff61016084015116906156c7565b6fffffffffffffffffffffffffffffffff6040830151168101809111610d655761455e61079060606105b59401516fffffffffffffffffffffffffffffffff1690565b90612f79565b61159a906144b7565b614575613400565b61457d613525565b906145888251151590565b6146d2576145a59061459983613ff8565b90818082039110020190565b906145d66145d16145cb6136be6101608501516dffffffffffffffffffffffffffff1690565b846155db565b614197565b906cffffffffffffffffffffffffff821680156146cd576146c4926146a5610b139261468d614604336141b3565b6146308784337f000000000000000000000000000000000000000000000000000000000000000061576b565b61465c8930337f0000000000000000000000000000000000000000000000000000000000000000613ecb565b61467a611efd86611ef884516cffffffffffffffffffffffffff1690565b335f908152600460205260409020613a91565b61469e8733613c015f805236155190565b86336157f7565b6143c16080840191611ef883516cffffffffffffffffffffffffff1690565b90612e97613411565b61575e565b615751565b63449e5f505f526004601cfd5b60105f60449260209582956014526034526fa9059cbb00000000000000000000000082525af13d1560015f51141716156104fd575f603452565b60018160591c1661472d575050565b5f91829182601c7ffffffffffffffffffffffffffffffffffffffffffffffffffffffffffffffffc36016101a060405195637bc725f58752602087015e6101c0808601526101e09080828701526004610200870137360193019160601c5af11561119f57565b9293916147e5916147b185516cffffffffffffffffffffffffff1690565b9460208101956cffffffffffffffffffffffffff9485916147df89516cffffffffffffffffffffffffff1690565b90613a72565b16801561499957610160830197885161480b906dffffffffffffffffffffffffffff1690565b6dffffffffffffffffffffffffffff16614824916155db565b81811090829003020161483690614197565b965193871693614856906dffffffffffffffffffffffffffff168561337c565b61485f90613fb0565b95878151614879906cffffffffffffffffffffffffff1690565b9061488391613add565b6cffffffffffffffffffffffffff16905260400180516148b69087906fffffffffffffffffffffffffffffffff16612eba565b6fffffffffffffffffffffffffffffffff16905260a0810180516148ea9088906cffffffffffffffffffffffffff16613a72565b6cffffffffffffffffffffffffff16905260608101805161491e9087906fffffffffffffffffffffffffffffffff16612eba565b6fffffffffffffffffffffffffffffffff16905260800180516149519087906cffffffffffffffffffffffffff16613a72565b6cffffffffffffffffffffffffff1690525f8052361551906fffffffffffffffffffffffffffffffff851691823091614989926153f7565b63ffffffff1691612e9792615825565b505f965086955050505050565b634d7909975f526004601cfd5b5f527f9dc30b8eda31a6a144e092e5de600955523a6a925cc15cc1d1b9b4872cfa615560205fa1565b634a1c13a95f526004601cfd5b63d0242b285f526004601cfd5b63119fe6e35f526004601cfd5b9190600183605b1c16614a1557505050565b5f9283601c81946101a07fffffffffffffffffffffffffffffffffffffffffffffffffffffffffffffffdc36019160405196635add5bea88526020880152604087015e6101e0908180870152806102008701526024610220870137360193019160601c5af11561119f57565b5f527fb848ae6b1253b6cb77e81464128ce8bd94d3d524fea54e801e0da869784dca3360205fa1565b5f527f860c0aa5520013080c2f65981705fcdea474d9f7c3daf954656ed5e65d692d1f60205fa1565b90604051916306e744445f527f000000000000000000000000000000000000000000000000000000000000000060205260405260205f6044601c7f00000000000000000000000000000000000000000000000000000000000000005afa60203d14161561119f575f5191604052565b63b9de88a25f526004601cfd5b91909260018360561c165f14614be55791604093916101a05f947fffffffffffffffffffffffffffffffffffffffffffffffffffffffffffffffbc360192875195631a8771f78752602087015287860152606085015e6102008084015280610220840152604461024084013782601c6101e0360193019160601c5af11560403d101761119f5761ffff90815f5116916020511690565b5090509091565b63cf1f916f5f526004601cfd5b638ec830735f526004601cfd5b630a68e5bf5f526004601cfd5b63253ecbb95f526004601cfd5b5f527fff7b6c8be373823323d3c5d99f5d027dd409dce5db54eae511bbdd5546b7503760205fa1565b5f527f72877a153052500f5edbb2f9da96a0f45d671d4b4555fdf8628a709dc4eab43a60205fa1565b93919490945f935f9361ffff610120880151169161018088019363ffffffff93848651168403848111610d6557614ca8916159d9565b8a819b614d43575b505080614d21575b5050614d16610160612e979596979801614d02614cfd8b61455e614cf78d614cf16136be88516dffffffffffffffffffffffffffff1690565b93612f79565b826156c7565b6158be565b6dffffffffffffffffffffffffffff169052565b1663ffffffff169052565b612e9795969750614d3a614d169261016092858c615885565b97969550614cb8565b614d8c92985090614d5391615716565b614d866cffffffffffffffffffffffffff60808c015116916dffffffffffffffffffffffffffff6101608d0151166156c7565b906156c7565b604089016fffffffffffffffffffffffffffffffff908181511691838301809311610d6557614dbf90831680931461559c565b5295895f614cb0565b614df66cffffffffffffffffffffffffff916147df8360a08601511691846020818351169201511690613a72565b16906fffffffffffffffffffffffffffffffff90614e3182606083015116936dffffffffffffffffffffffffffff61016084015116906156c7565b8301809311610d655760400151168101809111610d655780820391110290565b80516cffffffffffffffffffffffffff1690614e9360208201926cffffffffffffffffffffffffff9182916147df86516cffffffffffffffffffffffffff1690565b16801561500d576101608501958651614eb9906dffffffffffffffffffffffffffff1690565b6dffffffffffffffffffffffffffff16614ed2916155db565b818110908290030201614ee490614197565b9451614f04916dffffffffffffffffffffffffffff90911690861661337c565b614f0d90613fb0565b91848151614f27906cffffffffffffffffffffffffff1690565b90614f3191613add565b6cffffffffffffffffffffffffff1690526040018051614f649083906fffffffffffffffffffffffffffffffff16612eba565b6fffffffffffffffffffffffffffffffff16905260a082018051614f989085906cffffffffffffffffffffffffff16613a72565b6cffffffffffffffffffffffffff16905260608201908151614fc9906fffffffffffffffffffffffffffffffff1690565b90614fd391612eba565b6fffffffffffffffffffffffffffffffff169052608001908151615003906cffffffffffffffffffffffffff1690565b906143c191613a72565b505050505050565b90819073ffffffffffffffffffffffffffffffffffffffff7f1777adabd324f814e2b0e28f6edf876dce01d7d66358c9acfe87b1b5f38338d554169182606085015282156150f2575060405190638925ca5a825260405f60209483868601523383860152606080860152366080860152368260a08701373660c4019082601c8701915af1835f5114161561119f576080836105b5945160051b809460e06003830282010160405282820183823e80885201925f038184015281606084015285019260a08301845260a0019101525a604084015282519051906158db565b9392505050565b606081019073ffffffffffffffffffffffffffffffffffffffff825116156135e1575f8082518051908160061b9561513660c088840101836158db565b519160051b019360405a91015103604085015283519463f0bd9468855260c4019082601c8601915af11561119f5752565b927f18247a393d0531b65fbd94f5e78bc5639801a4efda62ae7b43533c4442116c3a959260c09592604051958652602086015260408501526060840152608083015260a0820152a1565b612e979061239f60c082015f6151cb825163ffffffff1690565b916151e76108318463ffffffff165f52600760205260405f2090565b94602086019061520482516cffffffffffffffffffffffffff1690565b9061521f61233989516cffffffffffffffffffffffffff1690565b6cffffffffffffffffffffffffff809316106152fd575b506152ac61525188516cffffffffffffffffffffffffff1690565b9261529961526c82516cffffffffffffffffffffffffff1690565b60408b015163ffffffff8a16966fffffffffffffffffffffffffffffffff90911691861690861687615913565b516cffffffffffffffffffffffffff1690565b906152c761233989516cffffffffffffffffffffffffff1690565b91161083146152ef57506152da8361594d565b5263ffffffff165f52600760205260405f2090565b6152f8906155b5565b6152da565b61530f615308612b29565b828a614dc8565b868161531d575b5050615236565b615327928a614793565b86615316565b5f526020527f9385f9ff65bcd2fb81cece54b27d4ec7376795fc4dcff686e370e347b0ed86c060405fa1565b9091939293600182605c1c16615371575b5050505050565b6101a05f959486957fffffffffffffffffffffffffffffffffffffffffffffffffffffffffffffffbc3601936040519663c4a066bf885233602089015260408801526060870152608086015260a085015e6102408084015280610260840152604461028084013782601c610220360193019160601c5af11561119f575f8080808061536a565b90915f527fddf252ad1be2c89b69c2b068fc378daa952ba7f163c4a11628f55a4df523b3ef60205fa3565b63186334fe5f526004601cfd5b9091600182605d1c16615443575050505050565b601c5f9594869592836101a0889536039384936040519963f8887e158b5260208b015260408a0152606089015e61020080880152816102208801526102408701376102240193019160601c5af11561119f575f8080808061536a565b906040519163a1054f6b5f527f00000000000000000000000000000000000000000000000000000000000000006020526040527f000000000000000000000000000000000000000000000000000000000000000060605260205f6064601c827f00000000000000000000000000000000000000000000000000000000000000005af160203d14161561119f575f51916040525f606052565b91929092604051935f526020526040527f0d0843a0fcb8b83f625aafb6e42f234ac48c6728b207d52d97cfa8fbd34d498f60605fa2604052565b90915f527fd6cddb3d69146e96ebc2c87b1b3dd0b20ee2d3b0eadf134e011afb434a3e56e660205fa3565b156155a357565b634e487b715f5260116020526024601cfd5b7fcbdf25bf6e096dd9030d89bb2ba2e3e7adb82d25a233c3ca3d92e9f098b74e555f80a2565b8160011c906b033b2e3c9fd0803ce8000000908183190481118415176155a35702010490565b9091600182605e1c16615615575050505050565b601c5f9594869592836101a08895360393849360405199639593743a8b5260208b015260408a0152606089015e61020080880152816102208801526102408701376102240193019160601c5af11561119f575f8080808061536a565b7f5c9a946d3041134198ebefcd814de7748def6576efd3d1b48f48193e183e89ef5f80a2565b919290925f526020527fecc966b282a372469fa4d3e497c2ac17983c3eaed03f3f17c9acf4b15591663e60405fa3565b817ffffffffffffffffffffffffffffffffffffffffffe6268e1b017bfe18bffffff04811115821517156155a3576b033b2e3c9fd0803ce800000091026b019d971e4fe8401e74000000010490565b817fffffffffffffffffffffffffffffffffffffffffffffffffffffffffffffec7704811115821517156155a3576127109102611388010490565b6322d7c0435f526004601cfd5b63e4aa50555f526004601cfd5b929192600181605f1c1661577f5750505050565b5f601c81956101a083967fffffffffffffffffffffffffffffffffffffffffffffffffffffffffffffffdc3601926040519763ec4dc31f895260208901526040880152606087015e610200908180870152806102208701526024610240870137360193019160601c5af11561119f575f808080613f56565b91905f526020527f90890809c654f11d6e72a28fa60149770a0d11ec6c92319d6ceb2bb0a4ea1a1560405fa2565b91905f526020527f5272034725119f19d7236de4129fdb5093f0dcb80282ca5edbd587df91d2bd8960405fa2565b9291905f526020526040527fe12b220b92469ae28fb0d79de531f94161431be9f073b96b8aad3effb88be6fa60605fa2565b909392935f9463ffffffff610180840151168203918211610d65576158a992615a0b565b90816158b3575050565b6105b59293506159d9565b90612e976dffffffffffffffffffffffffffff831680931461559c565b9190825190818152602080809501918181019360051b0101915b828110615903575050509050565b81515481529084019084016158f5565b91929092604051935f526020526040527f9262dc39b47cad3a0512e4c08dda248cb345e7163058f300bc63f56bda288b6e60605fa2604052565b6159979060055460801c90815f52600660205263ffffffff60405f2091167fffffffffffffffffffffffffffffffffffffffffffffffffffffffff00000000825416179055612e99565b6fffffffffffffffffffffffffffffffff7fffffffffffffffffffffffffffffffff000000000000000000000000000000006005549260801b16911617600555565b69152d02c7e14af68000008082029180828404036155a357830202918183041490151715610d65576301e13380900490565b90610100820163ffffffff9060e082825116940151615a4b57615a398585038686110292831680931461559c565b52808203911102818082039110020190565b848493940191828411610d6557615a6690831680931461559c565b528082039111028082039111029056fea164736f6c6343000819000a","linkReferences":{}},"methodIdentifiers":{"accruedProtocolFees()":"0cd1a5b6","allowance(address,address)":"dd62ed3e","annualInterestBips()":"11057cd0","approve(address,uint256)":"095ea7b3","archController()":"54635570","asset()":"38d52e0f","balanceOf(address)":"70a08231","borrow(uint256)":"c5ebeaec","borrowableAssets()":"76636017","borrower()":"7df1f1b9","changeSphereXEngine(address)":"4c6c848f","closeMarket()":"c511ed5e","collectFees()":"c8796572","coverageLiquidity()":"739ccdd3","currentState()":"0c3f6acf","decimals()":"313ce567","delinquencyFeeBips()":"4be687c6","delinquencyGracePeriod()":"514a4cd6","deposit(uint256)":"b6b55f25","depositUpTo(uint256)":"b68ce7a2","executeWithdrawal(address,uint32)":"34bca29c","executeWithdrawals(address[],uint32[])":"74058859","feeRecipient()":"46904840","getAccountWithdrawalStatus(address,uint32)":"02372c4f","getAvailableWithdrawalAmount(address,uint32)":"088fee5e","getUnpaidBatchExpiries()":"878eb921","getWithdrawalBatch(uint32)":"dbcd50b4","hooks()":"cd7033c4","isClosed()":"c2b6b58c","maxTotalSupply()":"2ab4d052","maximumDeposit()":"54b302c5","name()":"06fdde03","nukeFromOrbit(address)":"dcd549d4","previousState()":"0c1e3fea","protocolFeeBips()":"abadbf16","queueFullWithdrawal()":"7243d96c","queueWithdrawal(uint256)":"6b174f35","repay(uint256)":"371fd8e6","repayAndProcessUnpaidWithdrawalBatches(uint256,uint256)":"6731ba6d","repayDelinquentDebt()":"b67afb33","repayOutstandingDebt()":"19521311","rescueTokens(address)":"00ae3bf8","reserveRatioBips()":"d98e0fe8","scaleFactor()":"683dd191","scaledBalanceOf(address)":"1da24f3e","scaledTotalSupply()":"b1bf962d","sentinel()":"f58c251c","setAnnualInterestAndReserveRatioBips(uint16,uint16)":"e5adc635","setMaxTotalSupply(uint256)":"3f3e4c11","sphereXEngine()":"3c231166","sphereXOperator()":"e7e5db4f","symbol()":"95d89b41","totalAssets()":"01e1d114","totalDebts()":"14a1c32d","totalSupply()":"18160ddd","transfer(address,uint256)":"a9059cbb","transferFrom(address,address,uint256)":"23b872dd","updateState()":"1d8557d7","version()":"54fd4d50","withdrawableProtocolFees()":"1e3cef53","withdrawalBatchDuration()":"9e6f9802"},"id":96}