{"abi":[{"type":"constructor","inputs":[{"name":"_deployer","type":"address","internalType":"address"},{"name":"","type":"bytes","internalType":"bytes"}],"stateMutability":"nonpayable"},{"type":"function","name":"addRoleProvider","inputs":[{"name":"providerAddress","type":"address","internalType":"address"},{"name":"timeToLive","type":"uint32","internalType":"uint32"}],"outputs":[],"stateMutability":"nonpayable"},{"type":"function","name":"blockFromDeposits","inputs":[{"name":"account","type":"address","internalType":"address"}],"outputs":[],"stateMutability":"nonpayable"},{"type":"function","name":"borrower","inputs":[],"outputs":[{"name":"","type":"address","internalType":"address"}],"stateMutability":"view"},{"type":"function","name":"config","inputs":[],"outputs":[{"name":"","type":"uint256","internalType":"HooksDeploymentConfig"}],"stateMutability":"view"},{"type":"function","name":"factory","inputs":[],"outputs":[{"name":"","type":"address","internalType":"address"}],"stateMutability":"view"},{"type":"function","name":"getLenderStatus","inputs":[{"name":"accountAddress","type":"address","internalType":"address"}],"outputs":[{"name":"status","type":"tuple","internalType":"struct LenderStatus","components":[{"name":"isBlockedFromDeposits","type":"bool","internalType":"bool"},{"name":"hasEverDeposited","type":"bool","internalType":"bool"},{"name":"lastProvider","type":"address","internalType":"address"},{"name":"canRefresh","type":"bool","internalType":"bool"},{"name":"lastApprovalTimestamp","type":"uint32","internalType":"uint32"}]}],"stateMutability":"view"},{"type":"function","name":"getParameterConstraints","inputs":[],"outputs":[{"name":"constraints","type":"tuple","internalType":"struct MarketParameterConstraints","components":[{"name":"minimumDelinquencyGracePeriod","type":"uint32","internalType":"uint32"},{"name":"maximumDelinquencyGracePeriod","type":"uint32","internalType":"uint32"},{"name":"minimumReserveRatioBips","type":"uint16","internalType":"uint16"},{"name":"maximumReserveRatioBips","type":"uint16","internalType":"uint16"},{"name":"minimumDelinquencyFeeBips","type":"uint16","internalType":"uint16"},{"name":"maximumDelinquencyFeeBips","type":"uint16","internalType":"uint16"},{"name":"minimumWithdrawalBatchDuration","type":"uint32","internalType":"uint32"},{"name":"maximumWithdrawalBatchDuration","type":"uint32","internalType":"uint32"},{"name":"minimumAnnualInterestBips","type":"uint16","internalType":"uint16"},{"name":"maximumAnnualInterestBips","type":"uint16","internalType":"uint16"}]}],"stateMutability":"pure"},{"type":"function","name":"getPreviousLenderStatus","inputs":[{"name":"accountAddress","type":"address","internalType":"address"}],"outputs":[{"name":"status","type":"tuple","internalType":"struct LenderStatus","components":[{"name":"isBlockedFromDeposits","type":"bool","internalType":"bool"},{"name":"hasEverDeposited","type":"bool","internalType":"bool"},{"name":"lastProvider","type":"address","internalType":"address"},{"name":"canRefresh","type":"bool","internalType":"bool"},{"name":"lastApprovalTimestamp","type":"uint32","internalType":"uint32"}]}],"stateMutability":"view"},{"type":"function","name":"getPullProviders","inputs":[],"outputs":[{"name":"","type":"uint256[]","internalType":"RoleProvider[]"}],"stateMutability":"view"},{"type":"function","name":"getRoleProvider","inputs":[{"name":"providerAddress","type":"address","internalType":"address"}],"outputs":[{"name":"","type":"uint256","internalType":"RoleProvider"}],"stateMutability":"view"},{"type":"function","name":"grantRole","inputs":[{"name":"account","type":"address","internalType":"address"},{"name":"roleGrantedTimestamp","type":"uint32","internalType":"uint32"}],"outputs":[],"stateMutability":"nonpayable"},{"type":"function","name":"grantRoles","inputs":[{"name":"accounts","type":"address[]","internalType":"address[]"},{"name":"roleGrantedTimestamps","type":"uint32[]","internalType":"uint32[]"}],"outputs":[],"stateMutability":"nonpayable"},{"type":"function","name":"hookedMarkets","inputs":[{"name":"","type":"address","internalType":"address"}],"outputs":[{"name":"","type":"bool","internalType":"bool"}],"stateMutability":"view"},{"type":"function","name":"onAssetsSentToEscrow","inputs":[{"name":"lender","type":"address","internalType":"address"},{"name":"asset","type":"address","internalType":"address"},{"name":"escrow","type":"address","internalType":"address"},{"name":"scaledAmount","type":"uint256","internalType":"uint256"},{"name":"state","type":"tuple","internalType":"struct MarketState","components":[{"name":"isClosed","type":"bool","internalType":"bool"},{"name":"maxTotalSupply","type":"uint128","internalType":"uint128"},{"name":"accruedProtocolFees","type":"uint128","internalType":"uint128"},{"name":"normalizedUnclaimedWithdrawals","type":"uint128","internalType":"uint128"},{"name":"scaledTotalSupply","type":"uint104","internalType":"uint104"},{"name":"scaledPendingWithdrawals","type":"uint104","internalType":"uint104"},{"name":"pendingWithdrawalExpiry","type":"uint32","internalType":"uint32"},{"name":"isDelinquent","type":"bool","internalType":"bool"},{"name":"timeDelinquent","type":"uint32","internalType":"uint32"},{"name":"annualInterestBips","type":"uint16","internalType":"uint16"},{"name":"reserveRatioBips","type":"uint16","internalType":"uint16"},{"name":"scaleFactor","type":"uint112","internalType":"uint112"},{"name":"lastInterestAccruedTimestamp","type":"uint32","internalType":"uint32"}]},{"name":"hooksData","type":"bytes","internalType":"bytes"}],"outputs":[],"stateMutability":"nonpayable"},{"type":"function","name":"onBorrow","inputs":[{"name":"","type":"uint256","internalType":"uint256"},{"name":"","type":"tuple","internalType":"struct MarketState","components":[{"name":"isClosed","type":"bool","internalType":"bool"},{"name":"maxTotalSupply","type":"uint128","internalType":"uint128"},{"name":"accruedProtocolFees","type":"uint128","internalType":"uint128"},{"name":"normalizedUnclaimedWithdrawals","type":"uint128","internalType":"uint128"},{"name":"scaledTotalSupply","type":"uint104","internalType":"uint104"},{"name":"scaledPendingWithdrawals","type":"uint104","internalType":"uint104"},{"name":"pendingWithdrawalExpiry","type":"uint32","internalType":"uint32"},{"name":"isDelinquent","type":"bool","internalType":"bool"},{"name":"timeDelinquent","type":"uint32","internalType":"uint32"},{"name":"annualInterestBips","type":"uint16","internalType":"uint16"},{"name":"reserveRatioBips","type":"uint16","internalType":"uint16"},{"name":"scaleFactor","type":"uint112","internalType":"uint112"},{"name":"lastInterestAccruedTimestamp","type":"uint32","internalType":"uint32"}]},{"name":"","type":"bytes","internalType":"bytes"}],"outputs":[],"stateMutability":"nonpayable"},{"type":"function","name":"onCloseMarket","inputs":[{"name":"state","type":"tuple","internalType":"struct MarketState","components":[{"name":"isClosed","type":"bool","internalType":"bool"},{"name":"maxTotalSupply","type":"uint128","internalType":"uint128"},{"name":"accruedProtocolFees","type":"uint128","internalType":"uint128"},{"name":"normalizedUnclaimedWithdrawals","type":"uint128","internalType":"uint128"},{"name":"scaledTotalSupply","type":"uint104","internalType":"uint104"},{"name":"scaledPendingWithdrawals","type":"uint104","internalType":"uint104"},{"name":"pendingWithdrawalExpiry","type":"uint32","internalType":"uint32"},{"name":"isDelinquent","type":"bool","internalType":"bool"},{"name":"timeDelinquent","type":"uint32","internalType":"uint32"},{"name":"annualInterestBips","type":"uint16","internalType":"uint16"},{"name":"reserveRatioBips","type":"uint16","internalType":"uint16"},{"name":"scaleFactor","type":"uint112","internalType":"uint112"},{"name":"lastInterestAccruedTimestamp","type":"uint32","internalType":"uint32"}]},{"name":"hooksData","type":"bytes","internalType":"bytes"}],"outputs":[],"stateMutability":"nonpayable"},{"type":"function","name":"onCreateMarket","inputs":[{"name":"deployer","type":"address","internalType":"address"},{"name":"marketAddress","type":"address","internalType":"address"},{"name":"parameters","type":"tuple","internalType":"struct DeployMarketInputs","components":[{"name":"asset","type":"address","internalType":"address"},{"name":"namePrefix","type":"string","internalType":"string"},{"name":"symbolPrefix","type":"string","internalType":"string"},{"name":"maxTotalSupply","type":"uint128","internalType":"uint128"},{"name":"annualInterestBips","type":"uint16","internalType":"uint16"},{"name":"delinquencyFeeBips","type":"uint16","internalType":"uint16"},{"name":"withdrawalBatchDuration","type":"uint32","internalType":"uint32"},{"name":"reserveRatioBips","type":"uint16","internalType":"uint16"},{"name":"delinquencyGracePeriod","type":"uint32","internalType":"uint32"},{"name":"hooks","type":"uint256","internalType":"HooksConfig"}]},{"name":"extraData","type":"bytes","internalType":"bytes"}],"outputs":[],"stateMutability":"nonpayable"},{"type":"function","name":"onDeposit","inputs":[{"name":"lender","type":"address","internalType":"address"},{"name":"","type":"uint256","internalType":"uint256"},{"name":"","type":"tuple","internalType":"struct MarketState","components":[{"name":"isClosed","type":"bool","internalType":"bool"},{"name":"maxTotalSupply","type":"uint128","internalType":"uint128"},{"name":"accruedProtocolFees","type":"uint128","internalType":"uint128"},{"name":"normalizedUnclaimedWithdrawals","type":"uint128","internalType":"uint128"},{"name":"scaledTotalSupply","type":"uint104","internalType":"uint104"},{"name":"scaledPendingWithdrawals","type":"uint104","internalType":"uint104"},{"name":"pendingWithdrawalExpiry","type":"uint32","internalType":"uint32"},{"name":"isDelinquent","type":"bool","internalType":"bool"},{"name":"timeDelinquent","type":"uint32","internalType":"uint32"},{"name":"annualInterestBips","type":"uint16","internalType":"uint16"},{"name":"reserveRatioBips","type":"uint16","internalType":"uint16"},{"name":"scaleFactor","type":"uint112","internalType":"uint112"},{"name":"lastInterestAccruedTimestamp","type":"uint32","internalType":"uint32"}]},{"name":"hooksData","type":"bytes","internalType":"bytes"}],"outputs":[],"stateMutability":"nonpayable"},{"type":"function","name":"onExecuteWithdrawal","inputs":[{"name":"lender","type":"address","internalType":"address"},{"name":"","type":"uint128","internalType":"uint128"},{"name":"","type":"tuple","internalType":"struct MarketState","components":[{"name":"isClosed","type":"bool","internalType":"bool"},{"name":"maxTotalSupply","type":"uint128","internalType":"uint128"},{"name":"accruedProtocolFees","type":"uint128","internalType":"uint128"},{"name":"normalizedUnclaimedWithdrawals","type":"uint128","internalType":"uint128"},{"name":"scaledTotalSupply","type":"uint104","internalType":"uint104"},{"name":"scaledPendingWithdrawals","type":"uint104","internalType":"uint104"},{"name":"pendingWithdrawalExpiry","type":"uint32","internalType":"uint32"},{"name":"isDelinquent","type":"bool","internalType":"bool"},{"name":"timeDelinquent","type":"uint32","internalType":"uint32"},{"name":"annualInterestBips","type":"uint16","internalType":"uint16"},{"name":"reserveRatioBips","type":"uint16","internalType":"uint16"},{"name":"scaleFactor","type":"uint112","internalType":"uint112"},{"name":"lastInterestAccruedTimestamp","type":"uint32","internalType":"uint32"}]},{"name":"hooksData","type":"bytes","internalType":"bytes"}],"outputs":[],"stateMutability":"nonpayable"},{"type":"function","name":"onQueueWithdrawal","inputs":[{"name":"lender","type":"address","internalType":"address"},{"name":"","type":"uint256","internalType":"uint256"},{"name":"","type":"tuple","internalType":"struct MarketState","components":[{"name":"isClosed","type":"bool","internalType":"bool"},{"name":"maxTotalSupply","type":"uint128","internalType":"uint128"},{"name":"accruedProtocolFees","type":"uint128","internalType":"uint128"},{"name":"normalizedUnclaimedWithdrawals","type":"uint128","internalType":"uint128"},{"name":"scaledTotalSupply","type":"uint104","internalType":"uint104"},{"name":"scaledPendingWithdrawals","type":"uint104","internalType":"uint104"},{"name":"pendingWithdrawalExpiry","type":"uint32","internalType":"uint32"},{"name":"isDelinquent","type":"bool","internalType":"bool"},{"name":"timeDelinquent","type":"uint32","internalType":"uint32"},{"name":"annualInterestBips","type":"uint16","internalType":"uint16"},{"name":"reserveRatioBips","type":"uint16","internalType":"uint16"},{"name":"scaleFactor","type":"uint112","internalType":"uint112"},{"name":"lastInterestAccruedTimestamp","type":"uint32","internalType":"uint32"}]},{"name":"hooksData","type":"bytes","internalType":"bytes"}],"outputs":[],"stateMutability":"nonpayable"},{"type":"function","name":"onRepay","inputs":[{"name":"normalizedAmount","type":"uint256","internalType":"uint256"},{"name":"state","type":"tuple","internalType":"struct MarketState","components":[{"name":"isClosed","type":"bool","internalType":"bool"},{"name":"maxTotalSupply","type":"uint128","internalType":"uint128"},{"name":"accruedProtocolFees","type":"uint128","internalType":"uint128"},{"name":"normalizedUnclaimedWithdrawals","type":"uint128","internalType":"uint128"},{"name":"scaledTotalSupply","type":"uint104","internalType":"uint104"},{"name":"scaledPendingWithdrawals","type":"uint104","internalType":"uint104"},{"name":"pendingWithdrawalExpiry","type":"uint32","internalType":"uint32"},{"name":"isDelinquent","type":"bool","internalType":"bool"},{"name":"timeDelinquent","type":"uint32","internalType":"uint32"},{"name":"annualInterestBips","type":"uint16","internalType":"uint16"},{"name":"reserveRatioBips","type":"uint16","internalType":"uint16"},{"name":"scaleFactor","type":"uint112","internalType":"uint112"},{"name":"lastInterestAccruedTimestamp","type":"uint32","internalType":"uint32"}]},{"name":"hooksData","type":"bytes","internalType":"bytes"}],"outputs":[],"stateMutability":"nonpayable"},{"type":"function","name":"onSetAnnualInterestAndReserveRatioBips","inputs":[{"name":"annualInterestBips","type":"uint16","internalType":"uint16"},{"name":"reserveRatioBips","type":"uint16","internalType":"uint16"},{"name":"intermediateState","type":"tuple","internalType":"struct MarketState","components":[{"name":"isClosed","type":"bool","internalType":"bool"},{"name":"maxTotalSupply","type":"uint128","internalType":"uint128"},{"name":"accruedProtocolFees","type":"uint128","internalType":"uint128"},{"name":"normalizedUnclaimedWithdrawals","type":"uint128","internalType":"uint128"},{"name":"scaledTotalSupply","type":"uint104","internalType":"uint104"},{"name":"scaledPendingWithdrawals","type":"uint104","internalType":"uint104"},{"name":"pendingWithdrawalExpiry","type":"uint32","internalType":"uint32"},{"name":"isDelinquent","type":"bool","internalType":"bool"},{"name":"timeDelinquent","type":"uint32","internalType":"uint32"},{"name":"annualInterestBips","type":"uint16","internalType":"uint16"},{"name":"reserveRatioBips","type":"uint16","internalType":"uint16"},{"name":"scaleFactor","type":"uint112","internalType":"uint112"},{"name":"lastInterestAccruedTimestamp","type":"uint32","internalType":"uint32"}]},{"name":"hooksData","type":"bytes","internalType":"bytes"}],"outputs":[{"name":"updatedAnnualInterestBips","type":"uint16","internalType":"uint16"},{"name":"updatedReserveRatioBips","type":"uint16","internalType":"uint16"}],"stateMutability":"nonpayable"},{"type":"function","name":"onSetMaxTotalSupply","inputs":[{"name":"maxTotalSupply","type":"uint256","internalType":"uint256"},{"name":"state","type":"tuple","internalType":"struct MarketState","components":[{"name":"isClosed","type":"bool","internalType":"bool"},{"name":"maxTotalSupply","type":"uint128","internalType":"uint128"},{"name":"accruedProtocolFees","type":"uint128","internalType":"uint128"},{"name":"normalizedUnclaimedWithdrawals","type":"uint128","internalType":"uint128"},{"name":"scaledTotalSupply","type":"uint104","internalType":"uint104"},{"name":"scaledPendingWithdrawals","type":"uint104","internalType":"uint104"},{"name":"pendingWithdrawalExpiry","type":"uint32","internalType":"uint32"},{"name":"isDelinquent","type":"bool","internalType":"bool"},{"name":"timeDelinquent","type":"uint32","internalType":"uint32"},{"name":"annualInterestBips","type":"uint16","internalType":"uint16"},{"name":"reserveRatioBips","type":"uint16","internalType":"uint16"},{"name":"scaleFactor","type":"uint112","internalType":"uint112"},{"name":"lastInterestAccruedTimestamp","type":"uint32","internalType":"uint32"}]},{"name":"hooksData","type":"bytes","internalType":"bytes"}],"outputs":[],"stateMutability":"nonpayable"},{"type":"function","name":"onTransfer","inputs":[{"name":"","type":"address","internalType":"address"},{"name":"","type":"address","internalType":"address"},{"name":"to","type":"address","internalType":"address"},{"name":"","type":"uint256","internalType":"uint256"},{"name":"","type":"tuple","internalType":"struct MarketState","components":[{"name":"isClosed","type":"bool","internalType":"bool"},{"name":"maxTotalSupply","type":"uint128","internalType":"uint128"},{"name":"accruedProtocolFees","type":"uint128","internalType":"uint128"},{"name":"normalizedUnclaimedWithdrawals","type":"uint128","internalType":"uint128"},{"name":"scaledTotalSupply","type":"uint104","internalType":"uint104"},{"name":"scaledPendingWithdrawals","type":"uint104","internalType":"uint104"},{"name":"pendingWithdrawalExpiry","type":"uint32","internalType":"uint32"},{"name":"isDelinquent","type":"bool","internalType":"bool"},{"name":"timeDelinquent","type":"uint32","internalType":"uint32"},{"name":"annualInterestBips","type":"uint16","internalType":"uint16"},{"name":"reserveRatioBips","type":"uint16","internalType":"uint16"},{"name":"scaleFactor","type":"uint112","internalType":"uint112"},{"name":"lastInterestAccruedTimestamp","type":"uint32","internalType":"uint32"}]},{"name":"","type":"bytes","internalType":"bytes"}],"outputs":[],"stateMutability":"nonpayable"},{"type":"function","name":"removeRoleProvider","inputs":[{"name":"providerAddress","type":"address","internalType":"address"}],"outputs":[],"stateMutability":"nonpayable"},{"type":"function","name":"revokeRole","inputs":[{"name":"account","type":"address","internalType":"address"}],"outputs":[],"stateMutability":"nonpayable"},{"type":"function","name":"temporaryExcessReserveRatio","inputs":[{"name":"","type":"address","internalType":"address"}],"outputs":[{"name":"originalAnnualInterestBips","type":"uint16","internalType":"uint16"},{"name":"originalReserveRatioBips","type":"uint16","internalType":"uint16"},{"name":"expiry","type":"uint32","internalType":"uint32"}],"stateMutability":"view"},{"type":"function","name":"unblockFromDeposits","inputs":[{"name":"account","type":"address","internalType":"address"}],"outputs":[],"stateMutability":"nonpayable"},{"type":"function","name":"version","inputs":[],"outputs":[{"name":"","type":"string","internalType":"string"}],"stateMutability":"pure"},{"type":"event","name":"AccountAccessGranted","inputs":[{"name":"providerAddress","type":"address","indexed":true,"internalType":"address"},{"name":"accountAddress","type":"address","indexed":true,"internalType":"address"},{"name":"credentialTimestamp","type":"uint32","indexed":false,"internalType":"uint32"}],"anonymous":false},{"type":"event","name":"AccountAccessRevoked","inputs":[{"name":"accountAddress","type":"address","indexed":true,"internalType":"address"}],"anonymous":false},{"type":"event","name":"AccountBlockedFromDeposits","inputs":[{"name":"accountAddress","type":"address","indexed":true,"internalType":"address"}],"anonymous":false},{"type":"event","name":"AccountMadeFirstDeposit","inputs":[{"name":"accountAddress","type":"address","indexed":true,"internalType":"address"}],"anonymous":false},{"type":"event","name":"AccountUnblockedFromDeposits","inputs":[{"name":"accountAddress","type":"address","indexed":true,"internalType":"address"}],"anonymous":false},{"type":"event","name":"RoleProviderAdded","inputs":[{"name":"providerAddress","type":"address","indexed":true,"internalType":"address"},{"name":"timeToLive","type":"uint32","indexed":false,"internalType":"uint32"},{"name":"pullProviderIndex","type":"uint24","indexed":false,"internalType":"uint24"}],"anonymous":false},{"type":"event","name":"RoleProviderRemoved","inputs":[{"name":"providerAddress","type":"address","indexed":true,"internalType":"address"},{"name":"pullProviderIndex","type":"uint24","indexed":false,"internalType":"uint24"}],"anonymous":false},{"type":"event","name":"RoleProviderUpdated","inputs":[{"name":"providerAddress","type":"address","indexed":true,"internalType":"address"},{"name":"timeToLive","type":"uint32","indexed":false,"internalType":"uint32"},{"name":"pullProviderIndex","type":"uint24","indexed":false,"internalType":"uint24"}],"anonymous":false},{"type":"event","name":"TemporaryExcessReserveRatioActivated","inputs":[{"name":"market","type":"address","indexed":true,"internalType":"address"},{"name":"originalReserveRatioBips","type":"uint256","indexed":false,"internalType":"uint256"},{"name":"temporaryReserveRatioBips","type":"uint256","indexed":false,"internalType":"uint256"},{"name":"temporaryReserveRatioExpiry","type":"uint256","indexed":false,"internalType":"uint256"}],"anonymous":false},{"type":"event","name":"TemporaryExcessReserveRatioCanceled","inputs":[{"name":"market","type":"address","indexed":true,"internalType":"address"}],"anonymous":false},{"type":"event","name":"TemporaryExcessReserveRatioExpired","inputs":[{"name":"market","type":"address","indexed":true,"internalType":"address"}],"anonymous":false},{"type":"event","name":"TemporaryExcessReserveRatioUpdated","inputs":[{"name":"market","type":"address","indexed":true,"internalType":"address"},{"name":"originalReserveRatioBips","type":"uint256","indexed":false,"internalType":"uint256"},{"name":"temporaryReserveRatioBips","type":"uint256","indexed":false,"internalType":"uint256"},{"name":"temporaryReserveRatioExpiry","type":"uint256","indexed":false,"internalType":"uint256"}],"anonymous":false},{"type":"error","name":"AnnualInterestBipsOutOfBounds","inputs":[]},{"type":"error","name":"CallerNotBorrower","inputs":[]},{"type":"error","name":"CallerNotFactory","inputs":[]},{"type":"error","name":"DelinquencyFeeBipsOutOfBounds","inputs":[]},{"type":"error","name":"DelinquencyGracePeriodOutOfBounds","inputs":[]},{"type":"error","name":"GrantedCredentialExpired","inputs":[]},{"type":"error","name":"InvalidArrayLength","inputs":[]},{"type":"error","name":"InvalidCredentialReturned","inputs":[]},{"type":"error","name":"NotApprovedLender","inputs":[]},{"type":"error","name":"NotHookedMarket","inputs":[]},{"type":"error","name":"ProviderCanNotReplaceCredential","inputs":[]},{"type":"error","name":"ProviderCanNotRevokeCredential","inputs":[]},{"type":"error","name":"ProviderNotFound","inputs":[]},{"type":"error","name":"ReserveRatioBipsOutOfBounds","inputs":[]},{"type":"error","name":"WithdrawalBatchDurationOutOfBounds","inputs":[]}],"bytecode":{"object":"0x60e06040523461011c576133b38038038061001981610134565b92833981019060408183031261011c578051916001600160a01b03831680840361011c576020838101516001600160401b039491939185821161011c570181601f8201121561011c5780519485116101205761007d601f8601601f19168501610134565b9185835284868301011161011c57845f92600396868094018483015e010152336080528360a0525f525267ffffff0000000001600160e01b03199060401b1760405f20556240f00060c052604051613259908161015a82396080518181816114160152611df0015260a0518181816102760152818161096e01528181610b35015281816111b9015281816115b40152611e19015260c051816108a70152f35b5f80fd5b634e487b7160e01b5f52604160045260245ffd5b6040519190601f01601f191682016001600160401b038111838210176101205760405256fe60806040526004361015610011575f80fd5b5f3560e01c8063064ed53b146101da5780631a8771f7146101d557806322a4a19f146101d057806328fd0307146101cb5780634faba7f6146101c657806354fd4d50146101c15780635add5bea1461019e5780636b2b369b146101bc57806379502c55146101b75780637a2c09ae1461019e5780637bc725f5146101b25780637df1f1b9146101ad57806380e52e3f146101a85780638adfe0f8146101a35780638db431c31461019e5780638f8ef419146101995780639593743a146101945780639d2a76fe1461018f578063a11ef0671461018a578063aa94868914610185578063b037096d14610180578063bfd269be1461017b578063c45a015514610176578063c4a066bf14610171578063d6371a3c1461016c578063ea5b13bd14610167578063ec4dc31f14610162578063f8887e151461015d5763feb368e214610158575f80fd5b611a91565b611a12565b611853565b611557565b611549565b6114f4565b6113cc565b611369565b6112a3565b61116a565b6110d6565b610f6e565b610d4a565b610bd7565b61075e565b610ae5565b610992565b610924565b6108ca565b610872565b6107e8565b610699565b610631565b61056c565b6104c9565b610437565b610227565b6004359073ffffffffffffffffffffffffffffffffffffffff8216820361020257565b5f80fd5b359073ffffffffffffffffffffffffffffffffffffffff8216820361020257565b346102025760207ffffffffffffffffffffffffffffffffffffffffffffffffffffffffffffffffc3601126102025761025e6101df565b73ffffffffffffffffffffffffffffffffffffffff807f00000000000000000000000000000000000000000000000000000000000000001633036103a3578061033661033b92841693845f52600160205260405f2092604051936102c185610e72565b549060ff82161515855260ff8260081c16151560208601528160101c1660408501526102f860ff8260b01c16606086019015159052565b60b81c63ffffffff1660808401819052610361575b600183525b73ffffffffffffffffffffffffffffffffffffffff165f52600160205260405f2090565b611b80565b7f25b0d1830e0d487402e2c828de3ccbc9d16bd911aaec75fbba1bffd32657fad45f80a2005b6103798360405f918260608201528260808201520152565b847f47695aa96e09db0d106b9bd402979d6aff7e51ada06ec6fe014e5eeadd8c1dc05f80a261030d565b60046040517f3c698d79000000000000000000000000000000000000000000000000000000008152fd5b61ffff81160361020257565b7fffffffffffffffffffffffffffffffffffffffffffffffffffffffffffffffbc6101a091011261020257604490565b9181601f840112156102025782359167ffffffffffffffff8311610202576020838186019501011161020257565b34610202576102007ffffffffffffffffffffffffffffffffffffffffffffffffffffffffffffffffc36011261020257600435610473816103cd565b61047e6024356103cd565b610487366103d9565b6101e4359067ffffffffffffffff8211610202576040926104af6104b6933690600401610409565b50506121cd565b825161ffff928316815291166020820152f35b346102025760207ffffffffffffffffffffffffffffffffffffffffffffffffffffffffffffffffc3601126102025761056861050b6105066101df565b611cc1565b60405191829182919091608063ffffffff8160a084019580511515855260208101511515602086015273ffffffffffffffffffffffffffffffffffffffff6040820151166040860152606081015115156060860152015116910152565b0390f35b34610202577ffffffffffffffffffffffffffffffffffffffffffffffffffffffffffffffffc608081360112610202576105a46101df565b60243573ffffffffffffffffffffffffffffffffffffffff811681036102025760443567ffffffffffffffff9384821161020257610140908236030112610202576064359384116102025761060061060b943690600401610409565b505060040191611dd5565b005b73ffffffffffffffffffffffffffffffffffffffff165f52600360205260405f2090565b346102025760207ffffffffffffffffffffffffffffffffffffffffffffffffffffffffffffffffc3601126102025773ffffffffffffffffffffffffffffffffffffffff61067d6101df565b165f526004602052602060ff60405f2054166040519015158152f35b34610202575f7ffffffffffffffffffffffffffffffffffffffffffffffffffffffffffffffffc36011261020257604080519080820182811067ffffffffffffffff8211176107595781526020825260208201917f53696e676c65426f72726f776572416363657373436f6e74726f6c486f6f6b7383527fffffffffffffffffffffffffffffffffffffffffffffffffffffffffffffffe0601f8351948593602085525180918160208701528686015e5f85828601015201168101030190f35b610e45565b34610202576101e07ffffffffffffffffffffffffffffffffffffffffffffffffffffffffffffffffc360112610202576101a07fffffffffffffffffffffffffffffffffffffffffffffffffffffffffffffffdc360112610202576101c43567ffffffffffffffff81116102025761060b903690600401610409565b63ffffffff81160361020257565b346102025760407ffffffffffffffffffffffffffffffffffffffffffffffffffffffffffffffffc3601126102025761081f6101df565b60243561082b816107da565b335f52600360205260405f20549182156108485761060b92612719565b60046040517fb1cd0903000000000000000000000000000000000000000000000000000000008152fd5b34610202575f7ffffffffffffffffffffffffffffffffffffffffffffffffffffffffffffffffc3601126102025760206040517f00000000000000000000000000000000000000000000000000000000000000008152f35b34610202577ffffffffffffffffffffffffffffffffffffffffffffffffffffffffffffffffc36016101c08112610202576101a013610202576101a43567ffffffffffffffff81116102025761060b903690600401610409565b34610202575f7ffffffffffffffffffffffffffffffffffffffffffffffffffffffffffffffffc36011261020257602060405173ffffffffffffffffffffffffffffffffffffffff7f0000000000000000000000000000000000000000000000000000000000000000168152f35b346102025760207ffffffffffffffffffffffffffffffffffffffffffffffffffffffffffffffffc360112610202576109c96101df565b73ffffffffffffffffffffffffffffffffffffffff9081811691825f52600160205260405f2090610a6e60405192610a0084610e72565b5460ff81161515845260ff8160081c1615156020850152610a5463ffffffff6040860192858160101c168452610a4160ff8260b01c16606089019015159052565b60b81c16608086019063ffffffff169052565b5173ffffffffffffffffffffffffffffffffffffffff1690565b33911603610abb57610336610a95926103128360405f918260608201528260808201520152565b7f47695aa96e09db0d106b9bd402979d6aff7e51ada06ec6fe014e5eeadd8c1dc05f80a2005b60046040517f3a364f3d000000000000000000000000000000000000000000000000000000008152fd5b346102025760207ffffffffffffffffffffffffffffffffffffffffffffffffffffffffffffffffc36011261020257610b1c6101df565b73ffffffffffffffffffffffffffffffffffffffff90817f00000000000000000000000000000000000000000000000000000000000000001633036103a35716805f52600360205260405f2054801561084857815f5260036020525f604081205562ffffff809160281c16917f096f563e3528747c50a40c54ef564a28b9321ffc1c310e29a97f067e06f59aad60405180610bc3868291909162ffffff6020820193169052565b0390a28103610bce57005b61060b90612953565b34610202575f7ffffffffffffffffffffffffffffffffffffffffffffffffffffffffffffffffc36011261020257604051806002548083526020809301809160025f527f405787fa12a823e0f2b7631cc41b3ba8828b3321ca811111fa75cd3aa3bb5ace905f5b86828210610c93578686610c5482880383610eab565b60405192839281840190828552518091526040840192915f5b828110610c7c57505050500390f35b835185528695509381019392810192600101610c6d565b835485529093019260019283019201610c3e565b906102007ffffffffffffffffffffffffffffffffffffffffffffffffffffffffffffffffc8301126102025760043573ffffffffffffffffffffffffffffffffffffffff811681036102025791602435916101a07fffffffffffffffffffffffffffffffffffffffffffffffffffffffffffffffbc830112610202576044916101e4359067ffffffffffffffff821161020257610d4691600401610409565b9091565b3461020257610d5836610ca7565b915092915073ffffffffffffffffffffffffffffffffffffffff928383165f526001602052610df2610dee60405f2095610de863ffffffff60405198610d9d8a610e72565b5460ff811615158a5260208a019360ff8260081c16151585528160101c1660408b0152610dd560ff8260b01c1660608c019015159052565b60b81c16608089019063ffffffff169052565b51151590565b1590565b9283610e2e575b5050509050610e0457005b60046040517fe50a45ce000000000000000000000000000000000000000000000000000000008152fd5b610dee9350610e3c94612a88565b805f8080610df9565b7f4e487b71000000000000000000000000000000000000000000000000000000005f52604160045260245ffd5b60a0810190811067ffffffffffffffff82111761075957604052565b610140810190811067ffffffffffffffff82111761075957604052565b90601f7fffffffffffffffffffffffffffffffffffffffffffffffffffffffffffffffe0910116810190811067ffffffffffffffff82111761075957604052565b67ffffffffffffffff81116107595760051b60200190565b9080601f83011215610202576020908235610f1e81610eec565b93610f2c6040519586610eab565b81855260208086019260051b82010192831161020257602001905b828210610f55575050505090565b8380918335610f63816107da565b815201910190610f47565b346102025760407ffffffffffffffffffffffffffffffffffffffffffffffffffffffffffffffffc3601126102025767ffffffffffffffff6004358181116102025736602382011215610202578060040135610fc981610eec565b91610fd76040519384610eab565b8183526020916024602085019160051b8301019136831161020257602401905b82821061102057602435858782116102025761101a61060b923690600401610f04565b90611fdb565b83809161102c84610206565b815201910190610ff7565b815163ffffffff168152610140810192916110d4919060208181015163ffffffff169083015260408181015161ffff169083015260608181015161ffff169083015260808181015161ffff169083015260a08181015161ffff169083015260c08181015163ffffffff169083015260e08181015163ffffffff16908301526101008181015161ffff16908301526101209081015161ffff16910152565b565b34610202575f7ffffffffffffffffffffffffffffffffffffffffffffffffffffffffffffffffc3601126102025760405161111081610e8e565b5f60408281018290526080830182905260c0830182905261010083018290529082526276a70060208301526127106060830181905260a083018190526301e1338060e0840152610120830152519081906105689082611037565b346102025760207ffffffffffffffffffffffffffffffffffffffffffffffffffffffffffffffffc360112610202576111a16101df565b73ffffffffffffffffffffffffffffffffffffffff807f00000000000000000000000000000000000000000000000000000000000000001633036103a3578061033661127d92841693845f52600160205261125663ffffffff60405f20946040519561120c87610e72565b549060ff82161515875260ff8260081c16151560208801528160101c16604087015261124360ff8260b01c16606088019015159052565b60b81c16608085019063ffffffff169052565b5f835273ffffffffffffffffffffffffffffffffffffffff165f52600160205260405f2090565b7f7201a4017f7e2ac3b7164275daef1150d8fc64543b3f7196293722db50bc7fa05f80a2005b346102025760207ffffffffffffffffffffffffffffffffffffffffffffffffffffffffffffffffc360112610202576105686112dd6101df565b6112e5611c97565b5073ffffffffffffffffffffffffffffffffffffffff8091165f52600160205261050b63ffffffff60405f20926040519361131f85610e72565b549060ff82161515855260ff8260081c16151560208601528160101c16604085015261135660ff8260b01c16606086019015159052565b60b81c16608083019063ffffffff169052565b346102025760207ffffffffffffffffffffffffffffffffffffffffffffffffffffffffffffffffc3601126102025773ffffffffffffffffffffffffffffffffffffffff6113b56101df565b165f526003602052602060405f2054604051908152f35b34610202575f7ffffffffffffffffffffffffffffffffffffffffffffffffffffffffffffffffc36011261020257602060405173ffffffffffffffffffffffffffffffffffffffff7f0000000000000000000000000000000000000000000000000000000000000000168152f35b6102407ffffffffffffffffffffffffffffffffffffffffffffffffffffffffffffffffc8201126102025773ffffffffffffffffffffffffffffffffffffffff90600435828116810361020257926024358381168103610202579260443590811681036102025791606435916101a07fffffffffffffffffffffffffffffffffffffffffffffffffffffffffffffff7c83011261020257608491610224359067ffffffffffffffff821161020257610d4691600401610409565b34610202576115023661143a565b5050505091505073ffffffffffffffffffffffffffffffffffffffff8091165f52600160205261154263ffffffff60405f20926040519361131f85610e72565b51610e0457005b346102025761060b3661143a565b34610202576040807ffffffffffffffffffffffffffffffffffffffffffffffffffffffffffffffffc3601126102025761158f6101df565b6024359061159c826107da565b73ffffffffffffffffffffffffffffffffffffffff807f000000000000000000000000000000000000000000000000000000000000000016330361182a576116028273ffffffffffffffffffffffffffffffffffffffff165f52600360205260405f2090565b548061175a575081168351927f256909f1000000000000000000000000000000000000000000000000000000008452602084600481855afa938415611755575f946116fa575b506116b97fbe2909d8cc20d11ba19a80df9673ad2fd54f3d18592c03aa1413fc921e185b0b916116e09596875f146116f15760025462ffffff165b60281b86821b8360e01b1717976116e3575b5163ffffffff9091168152602887901c62ffffff1660208201529081906040820190565b0390a273ffffffffffffffffffffffffffffffffffffffff165f52600360205260405f2090565b55005b6116ec886120ef565b611695565b62ffffff611683565b6116e094507fbe2909d8cc20d11ba19a80df9673ad2fd54f3d18592c03aa1413fc921e185b0b916117456116b99260203d60201161174e575b61173d8183610eab565b8101906120cc565b95509150611648565b503d611733565b6120e4565b7bffffffffffffffffffffffffffffffffffffffffffffffffffffffff1660e084901b17936116e093917f0c641c0a4b692db5a80ac5db2cdc5d138e9878e3a42907e4ca46377d45e820f091602887901c62ffffff90811692916116b991841461182557611801896117cb86612097565b9091907fffffffffffffffffffffffffffffffffffffffffffffffffffffffffffffffff83549160031b92831b921b1916179055565b5163ffffffff909516855262ffffff90921660208501528416929081906040820190565b611801565b600484517f3c698d79000000000000000000000000000000000000000000000000000000008152fd5b346102025761186136610ca7565b9250905061189a610dee6118933373ffffffffffffffffffffffffffffffffffffffff165f52600460205260405f2090565b5460ff1690565b6119e8576118ce6118c98473ffffffffffffffffffffffffffffffffffffffff165f52600160205260405f2090565b611b1d565b916118d98351151590565b610e04576118e8918484612c7d565b9015610e04576020820181611900610dee8351151590565b918261199d575b5061193f575b1761191457005b61033661060b9273ffffffffffffffffffffffffffffffffffffffff165f52600160205260405f2090565b6040838101516080850151915163ffffffff909216825273ffffffffffffffffffffffffffffffffffffffff868116929116907fa04eb478c9c6a13a6de14b7eb31b1b629511e804c3cfef31bd549accd4b1552490602090a361190d565b6119e29073ffffffffffffffffffffffffffffffffffffffff87167f69da6af30334fddc87acb34f52a47c7548a48aeee9ec3b0a5eef11539c0dce015f80a260019052565b5f611907565b60046040517fb217907b000000000000000000000000000000000000000000000000000000008152fd5b34610202576102007ffffffffffffffffffffffffffffffffffffffffffffffffffffffffffffffffc36011261020257611a4a6101df565b506024356fffffffffffffffffffffffffffffffff81160361020257611a6f366103d9565b506101e43567ffffffffffffffff81116102025761060b903690600401610409565b346102025760207ffffffffffffffffffffffffffffffffffffffffffffffffffffffffffffffffc3601126102025773ffffffffffffffffffffffffffffffffffffffff611add6101df565b165f525f602052606060405f205463ffffffff61ffff916040519280821684528160101c16602084015260201c166040820152f35b9063ffffffff169052565b90604051611b2a81610e72565b608063ffffffff82945460ff81161515845260ff8160081c161515602085015273ffffffffffffffffffffffffffffffffffffffff8160101c16604085015260ff8160b01c161515606085015260b81c16910152565b63ffffffff60806110d493611bc381511515859060ff7fffffffffffffffffffffffffffffffffffffffffffffffffffffffffffffff0083541691151516179055565b60208101518454604083015160608401517fffffffffffffffffff00000000000000000000000000000000000000000000ff90921692151560081b61ff00169290921760109290921b75ffffffffffffffffffffffffffffffffffffffff0000169190911790151560b01b76ff0000000000000000000000000000000000000000000016178455015182547fffffffffff00000000ffffffffffffffffffffffffffffffffffffffffffffff16911660b81b7affffffff000000000000000000000000000000000000000000000016179055565b60405190611ca482610e72565b5f6080838281528260208201528260408201528260608201520152565b90611cca611c97565b50611cf66118c98373ffffffffffffffffffffffffffffffffffffffff165f52600160205260405f2090565b917fffffffffffffffffffffffffffffffffffffffffffffffffffffffffffffffff63ffffffff611d2e608086015163ffffffff1690565b16611d44575b611d3e91846126a4565b6110d457565b611d6861060d604086015173ffffffffffffffffffffffffffffffffffffffff1690565b5480611d93575b50611d3e91611d8c8560405f918260608201528260808201520152565b9150611d34565b611d9d8186612556565b611dd057606085015115611d6f579050611db88282866125a1565b611dcc5760281c62ffffff16611d3e611d6f565b5050565b505050565b91909173ffffffffffffffffffffffffffffffffffffffff807f0000000000000000000000000000000000000000000000000000000000000000163303611f6b57807f0000000000000000000000000000000000000000000000000000000000000000169116036103a357608081013591611e4f836103cd565b60a082013592611e5e846103cd565b60c0830135611e6c816107da565b61010060e085013594611e7e866103cd565b013594611e8a866107da565b612710908161ffff80951611611f4357831611611f1b576110d494611ec6611ecc93611ef096611ec063ffffffff809616612dc1565b16612df5565b16612e27565b73ffffffffffffffffffffffffffffffffffffffff165f52600460205260405f2090565b60017fffffffffffffffffffffffffffffffffffffffffffffffffffffffffffffff00825416179055565b7fcfd2223a000000000000000000000000000000000000000000000000000000005f5260045ffd5b7f74e6ce76000000000000000000000000000000000000000000000000000000005f5260045ffd5b60046040517fa84178ab000000000000000000000000000000000000000000000000000000008152fd5b7f4e487b71000000000000000000000000000000000000000000000000000000005f52603260045260245ffd5b8051821015611fd65760209160051b010190565b611f95565b91906120053373ffffffffffffffffffffffffffffffffffffffff165f52600360205260405f2090565b5492831561084857805182510361206d575f5b8151811015612066578061206073ffffffffffffffffffffffffffffffffffffffff61204660019486611fc2565b511663ffffffff6120578488611fc2565b51169088612719565b01612018565b5050509050565b60046040517f9d89020a000000000000000000000000000000000000000000000000000000008152fd5b600254811015611fd65760025f527f405787fa12a823e0f2b7631cc41b3ba8828b3321ca811111fa75cd3aa3bb5ace01905f90565b90816020910312610202575180151581036102025790565b6040513d5f823e3d90fd5b60025468010000000000000000811015610759576001810180600255811015611fd65760025f527f405787fa12a823e0f2b7631cc41b3ba8828b3321ca811111fa75cd3aa3bb5ace0155565b35612145816103cd565b90565b906040516060810181811067ffffffffffffffff82111761075957604052604063ffffffff82945461ffff80821685528160101c16602085015260201c16910152565b7f4e487b71000000000000000000000000000000000000000000000000000000005f52601160045260245ffd5b906212750082018092116121c857565b61218b565b916101408201906121dd8261213b565b918461ffff94858216926121f084612e5a565b61221f61221a3373ffffffffffffffffffffffffffffffffffffffff165f525f60205260405f2090565b612148565b92604084019163ffffffff918261223a855163ffffffff1690565b16806124a4575b505061225d612254845163ffffffff1690565b63ffffffff1690565b61248e57612277612271610120860161213b565b9161213b565b915b898216998a8810612292575b5050505050505050909150565b61233796979950612403989a6122ab918516908b612e64565b986122b8612254426121b8565b956122c7865163ffffffff1690565b9283166124115750506040805161ffff85811682528b16602082015263ffffffff871691810191909152611b12939261232c92509033907f16f9a191ecd86fd97f0ddc3dbed8fdc4d1e0d0644b93db99f8a577f52b0dec4390606090a261ffff168752565b61ffff166020860152565b61235e3373ffffffffffffffffffffffffffffffffffffffff165f525f60205260405f2090565b9061ffff81511690825491807fffffffffffffffffffffffffffffffffffffffffffffffffffffffffffff000084161784557fffffffffffffffffffffffffffffffffffffffffffffffff000000000000000067ffffffff00000000604063ffff0000602086015160101b169485857fffffffffffffffffffffffffffffffffffffffffffffffffffffffff00000000891617178855015160201b1693161717179055565b815f80808080808080612285565b61242c91929350610120612425910161213b565b61ffff1690565b1115612486575b506040805161ffff9283168152918816602083015263ffffffff84169082015233907ff813e17e21ecee3918b028c4e02f15f1fdd045f9f63183b6ab4f42c23c97b32190606090a29063ffffffff169052565b92505f612433565b50835161ffff16602085015161ffff1691612279565b6124b4612425610120880161213b565b88101590421015166124cb612425885161ffff1690565b88101581171561224157959650995050505050602092945061214593505f1461252c57337f145c143a918203cecb36063a1d70980ebb42b5b00490c5510d79c9d7717b77bb5f80a25b335f90815260208190526040812055015161ffff1690565b337f2045c970b5c1a8f9b69dd33e70a1f9d07b9021e408716d5b8daeb83a776ea05f5f80a2612514565b9063ffffffff608061259b930151169060e01c0163ffffffff90817fffffffffffffffffffffffffffffffffffffffffffffffffffffffff0000000182019110020190565b42111590565b909291925f935f9063ccdad14b5f5260205260205f6024601c73ffffffffffffffffffffffffffffffffffffffff8660401c165afa601f3d1116612696575b63ffffffff16918215801561268d575b6126855761262e838360e01c0163ffffffff90817fffffffffffffffffffffffffffffffffffffffffffffffffffffffff0000000182019110020190565b42111561263a57505050565b612680939450919063ffffffff60609216608084015273ffffffffffffffffffffffffffffffffffffffff8160401c16604084015262ffffff809160281c161415910152565b600190565b505f93505050565b504283116125f0565b505f5163ffffffff166125e0565b9291905f9360028054935f5b8581106126bf57505050505050565b81811461271157825f526126f785827f405787fa12a823e0f2b7631cc41b3ba8828b3321ca811111fa75cd3aa3bb5ace0154866125a1565b612705576001905b016126b0565b50600196505050505050565b6001906126ff565b91906127466118c98273ffffffffffffffffffffffffffffffffffffffff165f52600160205260405f2090565b9263ffffffff6127888185168360e01c0163ffffffff90817fffffffffffffffffffffffffffffffffffffffffffffffffffffffff0000000182019110020190565b904282106128995760808601908151166127a8575b50506110d493612f10565b60408601906127ce61060d835173ffffffffffffffffffffffffffffffffffffffff1690565b5490816127dd575b505061279d565b612846916127f561225461282b935163ffffffff1690565b9060e01c0163ffffffff90817fffffffffffffffffffffffffffffffffffffffffffffffffffffffff0000000182019110020190565b915173ffffffffffffffffffffffffffffffffffffffff1690565b73ffffffffffffffffffffffffffffffffffffffff1633149111171561286f575f8080806127d6565b60046040517fc03faa56000000000000000000000000000000000000000000000000000000008152fd5b60046040517f5a922a2f000000000000000000000000000000000000000000000000000000008152fd5b6002548015612926577fffffffffffffffffffffffffffffffffffffffffffffffffffffffffffffffff81019080821015611fd6577f405787fa12a823e0f2b7631cc41b3ba8828b3321ca811111fa75cd3aa3bb5acd5f91600283520155600255565b7f4e487b71000000000000000000000000000000000000000000000000000000005f52603160045260245ffd5b6002547fffffffffffffffffffffffffffffffffffffffffffffffffffffffffffffffff81018181116121c8578062ffffff841614612a7d576002541115611fd6577f405787fa12a823e0f2b7631cc41b3ba8828b3321ca811111fa75cd3aa3bb5acd7f0c641c0a4b692db5a80ac5db2cdc5d138e9878e3a42907e4ca46377d45e820f09160025f5201547fffffffffffffffffffffffffffffffffffffffffffffffff000000ffffffffff8360281b91161791612a14836117cb83612097565b612a1c6128c3565b73ffffffffffffffffffffffffffffffffffffffff8360401c169280612a608573ffffffffffffffffffffffffffffffffffffffff165f52600360205260405f2090565b556040805160e09290921c825262ffffff929092166020820152a2565b5050506110d46128c3565b9392612a9691928386612c7d565b938194612aa257505050565b73ffffffffffffffffffffffffffffffffffffffff80931692835f52600160205260405f2092612b0083511515859060ff7fffffffffffffffffffffffffffffffffffffffffffffffffffffffffffffff0083541691151516179055565b612c13612bc7608060208601511515958754966040820151977fffffffffffffffffffff000000000000000000000000000000000000000000ff61ff0075ffffffffffffffffffffffffffffffffffffffff00008b60101b169360081b16911617178855612bbc612b746060830151151590565b89547fffffffffffffffffff00ffffffffffffffffffffffffffffffffffffffffffff1690151560b01b76ff0000000000000000000000000000000000000000000016178955565b015163ffffffff1690565b85547fffffffffff00000000ffffffffffffffffffffffffffffffffffffffffffffff1660b882901b7affffffff00000000000000000000000000000000000000000000001617909555565b15612c545760405163ffffffff909316835216907fa04eb478c9c6a13a6de14b7eb31b1b629511e804c3cfef31bd549accd4b155249080602081015b0390a3565b5050507f47695aa96e09db0d106b9bd402979d6aff7e51ada06ec6fe014e5eeadd8c1dc05f80a2565b90929391935f945f94608084019163ffffffff938484511615155f14612dba57612cc161060d604088015173ffffffffffffffffffffffffffffffffffffffff1690565b54905b811515928380612daa575b612d995790612cdf9185896130ee565b612d8a577fffffffffffffffffffffffffffffffffffffffffffffffffffffffffffffffff9180612d7d575b612d4e575b50612d1b91856126a4565b612d42575116612d285750565b61268091925060405f918260608201528260808201520152565b50600194508493505050565b9050612d5b8282876125a1565b612d6f5760281c62ffffff16612d1b612d10565b506001965086955050505050565b5060608601511515612d0b565b50600197508796505050505050565b50600199505f985050505050505050565b50612db58389612556565b612ccf565b5f90612cc4565b6301e1338010612dcd57565b7f772de361000000000000000000000000000000000000000000000000000000005f5260045ffd5b61271010612dff57565b7fc7f3bbb9000000000000000000000000000000000000000000000000000000005f5260045ffd5b6276a70010612e3257565b7f21366737000000000000000000000000000000000000000000000000000000005f5260045ffd5b61271010611f4357565b810391908083116121c85761271092807fffffffffffffffffffffffffffffffffffffffffffffffffffffffffffffffff048411810215820215612f0357830204916109c48311612eb9575061ffff91501690565b908260011b927f7fffffffffffffffffffffffffffffffffffffffffffffffffffffffffffffff8116036121c8578282816121459561242595039110020190818103908210020190565b63ad251c275f526004601cfd5b63ffffffff84166080820152604082811c73ffffffffffffffffffffffffffffffffffffffff1690820152602882901c62ffffff9081161415606082015292917fa04eb478c9c6a13a6de14b7eb31b1b629511e804c3cfef31bd549accd4b15524916130d373ffffffffffffffffffffffffffffffffffffffff80931695865f526001602052613088608060405f2092612fd881511515859060ff7fffffffffffffffffffffffffffffffffffffffffffffffffffffffffffffff0083541691151516179055565b6020810151151584547fffffffffffffffffffff000000000000000000000000000000000000000000ff61ff0075ffffffffffffffffffffffffffffffffffffffff0000604086015160101b169360081b16911617178455612bbc6130406060830151151590565b85547fffffffffffffffffff00ffffffffffffffffffffffffffffffffffffffffffff1690151560b01b76ff0000000000000000000000000000000000000000000016178555565b7fffffffffff00000000ffffffffffffffffffffffffffffffffffffffffffffff7affffffff000000000000000000000000000000000000000000000083549260b81b169116179055565b6040805163ffffffff90951685521c16918060208101612c4f565b5f9493919290916014810361313e57503560601c5f52600360205260405f2054908115158061312c575b61312157505050565b6121459394506125a1565b5062ffffff808360281c161415613118565b9290916014841161314f5750505050565b823560601c5f81815260036020526040812054969750956121459590939190841561324157915f9182601c6050602096839a604051966354560cb288528988015260408088015260147fffffffffffffffffffffffffffffffffffffffffffffffffffffffffffffffec8301918260608a0152016080880137019301915af1613219575b8215801561268d576126855761262e838360e01c0163ffffffff90817fffffffffffffffffffffffffffffffffffffffffffffffffffffffff0000000182019110020190565b915060203d106001146132345763ffffffff5f5116916131d3565b63c177c7005f526004601cfd5b505f9650505050505056fea164736f6c6343000819000a","linkReferences":{}},"methodIdentifiers":{"addRoleProvider(address,uint32)":"ea5b13bd","blockFromDeposits(address)":"064ed53b","borrower()":"7df1f1b9","config()":"79502c55","factory()":"c45a0155","getLenderStatus(address)":"22a4a19f","getParameterConstraints()":"a11ef067","getPreviousLenderStatus(address)":"b037096d","getPullProviders()":"8f8ef419","getRoleProvider(address)":"bfd269be","grantRole(address,uint32)":"6b2b369b","grantRoles(address[],uint32[])":"9d2a76fe","hookedMarkets(address)":"4faba7f6","onAssetsSentToEscrow(address,address,address,uint256,(bool,uint128,uint128,uint128,uint104,uint104,uint32,bool,uint32,uint16,uint16,uint112,uint32),bytes)":"d6371a3c","onBorrow(uint256,(bool,uint128,uint128,uint128,uint104,uint104,uint32,bool,uint32,uint16,uint16,uint112,uint32),bytes)":"5add5bea","onCloseMarket((bool,uint128,uint128,uint128,uint104,uint104,uint32,bool,uint32,uint16,uint16,uint112,uint32),bytes)":"7bc725f5","onCreateMarket(address,address,(address,string,string,uint128,uint16,uint16,uint32,uint16,uint32,uint256),bytes)":"28fd0307","onDeposit(address,uint256,(bool,uint128,uint128,uint128,uint104,uint104,uint32,bool,uint32,uint16,uint16,uint112,uint32),bytes)":"ec4dc31f","onExecuteWithdrawal(address,uint128,(bool,uint128,uint128,uint128,uint104,uint104,uint32,bool,uint32,uint16,uint16,uint112,uint32),bytes)":"f8887e15","onQueueWithdrawal(address,uint256,(bool,uint128,uint128,uint128,uint104,uint104,uint32,bool,uint32,uint16,uint16,uint112,uint32),bytes)":"9593743a","onRepay(uint256,(bool,uint128,uint128,uint128,uint104,uint104,uint32,bool,uint32,uint16,uint16,uint112,uint32),bytes)":"8db431c3","onSetAnnualInterestAndReserveRatioBips(uint16,uint16,(bool,uint128,uint128,uint128,uint104,uint104,uint32,bool,uint32,uint16,uint16,uint112,uint32),bytes)":"1a8771f7","onSetMaxTotalSupply(uint256,(bool,uint128,uint128,uint128,uint104,uint104,uint32,bool,uint32,uint16,uint16,uint112,uint32),bytes)":"7a2c09ae","onTransfer(address,address,address,uint256,(bool,uint128,uint128,uint128,uint104,uint104,uint32,bool,uint32,uint16,uint16,uint112,uint32),bytes)":"c4a066bf","removeRoleProvider(address)":"8adfe0f8","revokeRole(address)":"80e52e3f","temporaryExcessReserveRatio(address)":"feb368e2","unblockFromDeposits(address)":"aa948689","version()":"54fd4d50"},"id":68}