{"abi":[{"type":"constructor","inputs":[{"name":"archController_","type":"address","internalType":"address"},{"name":"_sanctionsSentinel","type":"address","internalType":"address"},{"name":"_marketInitCodeStorage","type":"address","internalType":"address"},{"name":"_marketInitCodeHash","type":"uint256","internalType":"uint256"}],"stateMutability":"nonpayable"},{"type":"function","name":"addHooksTemplate","inputs":[{"name":"hooksTemplate","type":"address","internalType":"address"},{"name":"name","type":"string","internalType":"string"},{"name":"feeRecipient","type":"address","internalType":"address"},{"name":"originationFeeAsset","type":"address","internalType":"address"},{"name":"originationFeeAmount","type":"uint80","internalType":"uint80"},{"name":"protocolFeeBips","type":"uint16","internalType":"uint16"}],"outputs":[],"stateMutability":"nonpayable"},{"type":"function","name":"archController","inputs":[],"outputs":[{"name":"","type":"address","internalType":"address"}],"stateMutability":"view"},{"type":"function","name":"changeSphereXEngine","inputs":[{"name":"newSphereXEngine","type":"address","internalType":"address"}],"outputs":[],"stateMutability":"nonpayable"},{"type":"function","name":"computeMarketAddress","inputs":[{"name":"salt","type":"bytes32","internalType":"bytes32"}],"outputs":[{"name":"","type":"address","internalType":"address"}],"stateMutability":"view"},{"type":"function","name":"deployHooksInstance","inputs":[{"name":"hooksTemplate","type":"address","internalType":"address"},{"name":"constructorArgs","type":"bytes","internalType":"bytes"}],"outputs":[{"name":"hooksInstance","type":"address","internalType":"address"}],"stateMutability":"nonpayable"},{"type":"function","name":"deployMarket","inputs":[{"name":"parameters","type":"tuple","internalType":"struct DeployMarketInputs","components":[{"name":"asset","type":"address","internalType":"address"},{"name":"namePrefix","type":"string","internalType":"string"},{"name":"symbolPrefix","type":"string","internalType":"string"},{"name":"maxTotalSupply","type":"uint128","internalType":"uint128"},{"name":"annualInterestBips","type":"uint16","internalType":"uint16"},{"name":"delinquencyFeeBips","type":"uint16","internalType":"uint16"},{"name":"withdrawalBatchDuration","type":"uint32","internalType":"uint32"},{"name":"reserveRatioBips","type":"uint16","internalType":"uint16"},{"name":"delinquencyGracePeriod","type":"uint32","internalType":"uint32"},{"name":"hooks","type":"uint256","internalType":"HooksConfig"}]},{"name":"hooksData","type":"bytes","internalType":"bytes"},{"name":"salt","type":"bytes32","internalType":"bytes32"}],"outputs":[{"name":"market","type":"address","internalType":"address"}],"stateMutability":"nonpayable"},{"type":"function","name":"deployMarketAndHooks","inputs":[{"name":"hooksTemplate","type":"address","internalType":"address"},{"name":"hooksTemplateArgs","type":"bytes","internalType":"bytes"},{"name":"parameters","type":"tuple","internalType":"struct DeployMarketInputs","components":[{"name":"asset","type":"address","internalType":"address"},{"name":"namePrefix","type":"string","internalType":"string"},{"name":"symbolPrefix","type":"string","internalType":"string"},{"name":"maxTotalSupply","type":"uint128","internalType":"uint128"},{"name":"annualInterestBips","type":"uint16","internalType":"uint16"},{"name":"delinquencyFeeBips","type":"uint16","internalType":"uint16"},{"name":"withdrawalBatchDuration","type":"uint32","internalType":"uint32"},{"name":"reserveRatioBips","type":"uint16","internalType":"uint16"},{"name":"delinquencyGracePeriod","type":"uint32","internalType":"uint32"},{"name":"hooks","type":"uint256","internalType":"HooksConfig"}]},{"name":"hooksData","type":"bytes","internalType":"bytes"},{"name":"salt","type":"bytes32","internalType":"bytes32"}],"outputs":[{"name":"market","type":"address","internalType":"address"},{"name":"hooksInstance","type":"address","internalType":"address"}],"stateMutability":"nonpayable"},{"type":"function","name":"disableHooksTemplate","inputs":[{"name":"hooksTemplate","type":"address","internalType":"address"}],"outputs":[],"stateMutability":"nonpayable"},{"type":"function","name":"getHooksTemplateDetails","inputs":[{"name":"hooksTemplate","type":"address","internalType":"address"}],"outputs":[{"name":"","type":"tuple","internalType":"struct HooksTemplate","components":[{"name":"originationFeeAsset","type":"address","internalType":"address"},{"name":"originationFeeAmount","type":"uint80","internalType":"uint80"},{"name":"protocolFeeBips","type":"uint16","internalType":"uint16"},{"name":"exists","type":"bool","internalType":"bool"},{"name":"enabled","type":"bool","internalType":"bool"},{"name":"index","type":"uint24","internalType":"uint24"},{"name":"feeRecipient","type":"address","internalType":"address"},{"name":"name","type":"string","internalType":"string"}]}],"stateMutability":"view"},{"type":"function","name":"getHooksTemplateForInstance","inputs":[{"name":"hooksInstance","type":"address","internalType":"address"}],"outputs":[{"name":"hooksTemplate","type":"address","internalType":"address"}],"stateMutability":"view"},{"type":"function","name":"getHooksTemplates","inputs":[],"outputs":[{"name":"","type":"address[]","internalType":"address[]"}],"stateMutability":"view"},{"type":"function","name":"getMarketParameters","inputs":[],"outputs":[{"name":"parameters","type":"tuple","internalType":"struct MarketParameters","components":[{"name":"asset","type":"address","internalType":"address"},{"name":"decimals","type":"uint8","internalType":"uint8"},{"name":"packedNameWord0","type":"bytes32","internalType":"bytes32"},{"name":"packedNameWord1","type":"bytes32","internalType":"bytes32"},{"name":"packedSymbolWord0","type":"bytes32","internalType":"bytes32"},{"name":"packedSymbolWord1","type":"bytes32","internalType":"bytes32"},{"name":"borrower","type":"address","internalType":"address"},{"name":"feeRecipient","type":"address","internalType":"address"},{"name":"sentinel","type":"address","internalType":"address"},{"name":"maxTotalSupply","type":"uint128","internalType":"uint128"},{"name":"protocolFeeBips","type":"uint16","internalType":"uint16"},{"name":"annualInterestBips","type":"uint16","internalType":"uint16"},{"name":"delinquencyFeeBips","type":"uint16","internalType":"uint16"},{"name":"withdrawalBatchDuration","type":"uint32","internalType":"uint32"},{"name":"reserveRatioBips","type":"uint16","internalType":"uint16"},{"name":"delinquencyGracePeriod","type":"uint32","internalType":"uint32"},{"name":"archController","type":"address","internalType":"address"},{"name":"sphereXEngine","type":"address","internalType":"address"},{"name":"hooks","type":"uint256","internalType":"HooksConfig"}]}],"stateMutability":"view"},{"type":"function","name":"isHooksInstance","inputs":[{"name":"hooksInstance","type":"address","internalType":"address"}],"outputs":[{"name":"","type":"bool","internalType":"bool"}],"stateMutability":"view"},{"type":"function","name":"isHooksTemplate","inputs":[{"name":"hooksTemplate","type":"address","internalType":"address"}],"outputs":[{"name":"","type":"bool","internalType":"bool"}],"stateMutability":"view"},{"type":"function","name":"marketInitCodeHash","inputs":[],"outputs":[{"name":"","type":"uint256","internalType":"uint256"}],"stateMutability":"view"},{"type":"function","name":"marketInitCodeStorage","inputs":[],"outputs":[{"name":"","type":"address","internalType":"address"}],"stateMutability":"view"},{"type":"function","name":"registerWithArchController","inputs":[],"outputs":[],"stateMutability":"nonpayable"},{"type":"function","name":"sanctionsSentinel","inputs":[],"outputs":[{"name":"","type":"address","internalType":"address"}],"stateMutability":"view"},{"type":"function","name":"sphereXEngine","inputs":[],"outputs":[{"name":"","type":"address","internalType":"address"}],"stateMutability":"view"},{"type":"function","name":"sphereXOperator","inputs":[],"outputs":[{"name":"","type":"address","internalType":"address"}],"stateMutability":"view"},{"type":"function","name":"updateHooksTemplateFees","inputs":[{"name":"hooksTemplate","type":"address","internalType":"address"},{"name":"feeRecipient","type":"address","internalType":"address"},{"name":"originationFeeAsset","type":"address","internalType":"address"},{"name":"originationFeeAmount","type":"uint80","internalType":"uint80"},{"name":"protocolFeeBips","type":"uint16","internalType":"uint16"}],"outputs":[],"stateMutability":"nonpayable"},{"type":"event","name":"ChangedSpherexEngineAddress","inputs":[{"name":"oldEngineAddress","type":"address","indexed":false,"internalType":"address"},{"name":"newEngineAddress","type":"address","indexed":false,"internalType":"address"}],"anonymous":false},{"type":"event","name":"ChangedSpherexOperator","inputs":[{"name":"oldSphereXAdmin","type":"address","indexed":false,"internalType":"address"},{"name":"newSphereXAdmin","type":"address","indexed":false,"internalType":"address"}],"anonymous":false},{"type":"event","name":"HooksInstanceDeployed","inputs":[{"name":"hooksInstance","type":"address","indexed":false,"internalType":"address"},{"name":"hooksTemplate","type":"address","indexed":false,"internalType":"address"}],"anonymous":false},{"type":"event","name":"HooksTemplateAdded","inputs":[{"name":"hooksTemplate","type":"address","indexed":false,"internalType":"address"},{"name":"name","type":"string","indexed":false,"internalType":"string"},{"name":"feeRecipient","type":"address","indexed":false,"internalType":"address"},{"name":"originationFeeAsset","type":"address","indexed":false,"internalType":"address"},{"name":"originationFeeAmount","type":"uint80","indexed":false,"internalType":"uint80"},{"name":"protocolFeeBips","type":"uint16","indexed":false,"internalType":"uint16"}],"anonymous":false},{"type":"event","name":"HooksTemplateDisabled","inputs":[{"name":"hooksTemplate","type":"address","indexed":false,"internalType":"address"}],"anonymous":false},{"type":"event","name":"HooksTemplateFeesUpdated","inputs":[{"name":"hooksTemplate","type":"address","indexed":false,"internalType":"address"},{"name":"feeRecipient","type":"address","indexed":false,"internalType":"address"},{"name":"originationFeeAsset","type":"address","indexed":false,"internalType":"address"},{"name":"originationFeeAmount","type":"uint80","indexed":false,"internalType":"uint80"},{"name":"protocolFeeBips","type":"uint16","indexed":false,"internalType":"uint16"}],"anonymous":false},{"type":"event","name":"MarketDeployed","inputs":[{"name":"market","type":"address","indexed":true,"internalType":"address"},{"name":"name","type":"string","indexed":false,"internalType":"string"},{"name":"symbol","type":"string","indexed":false,"internalType":"string"},{"name":"asset","type":"address","indexed":false,"internalType":"address"},{"name":"maxTotalSupply","type":"uint256","indexed":false,"internalType":"uint256"},{"name":"annualInterestBips","type":"uint256","indexed":false,"internalType":"uint256"},{"name":"delinquencyFeeBips","type":"uint256","indexed":false,"internalType":"uint256"},{"name":"withdrawalBatchDuration","type":"uint256","indexed":false,"internalType":"uint256"},{"name":"reserveRatioBips","type":"uint256","indexed":false,"internalType":"uint256"},{"name":"delinquencyGracePeriod","type":"uint256","indexed":false,"internalType":"uint256"},{"name":"hooks","type":"uint256","indexed":false,"internalType":"HooksConfig"}],"anonymous":false},{"type":"error","name":"AssetBlacklisted","inputs":[]},{"type":"error","name":"CallerNotArchControllerOwner","inputs":[]},{"type":"error","name":"DeploymentFailed","inputs":[]},{"type":"error","name":"HooksInstanceNotFound","inputs":[]},{"type":"error","name":"HooksTemplateAlreadyExists","inputs":[]},{"type":"error","name":"HooksTemplateNotAvailable","inputs":[]},{"type":"error","name":"HooksTemplateNotFound","inputs":[]},{"type":"error","name":"InvalidFeeConfiguration","inputs":[]},{"type":"error","name":"MarketAlreadyExists","inputs":[]},{"type":"error","name":"NameOrSymbolTooLong","inputs":[]},{"type":"error","name":"NoReentrantCalls","inputs":[]},{"type":"error","name":"NotApprovedBorrower","inputs":[]},{"type":"error","name":"SaltDoesNotContainSender","inputs":[]},{"type":"error","name":"SphereXOperatorRequired","inputs":[]}],"bytecode":{"object":"0x610120806040523461010157608090613c9e9081380391829161002183610105565b39126101015761004d61003261013e565b61003a610155565b61004261016c565b9061018051926101a2565b6040516139d090816102ce82396080518181816105010152818161098101528181610bb501528181610ceb01528181610dba0152818161133f0152818161157a01528181611659015281816118490152818161223b01528181612c550152818161307e01526130ef015260a0518181816117460152612d65015260c051818181610a6c0152613056015260e0518181816116ee015281816117710152612d8d01526101005181818161041a0152610c750152f35b5f80fd5b601f01601f1916610120908101906001600160401b0382119082101761012a57604052565b634e487b7160e01b5f52604160045260245ffd5b61012051906001600160a01b038216820361010157565b61014051906001600160a01b038216820361010157565b61016051906001600160a01b038216820361010157565b9081602091031261010157516001600160a01b03811681036101015790565b9060049360209360ff60a01b301760a05260c05260e052816080526101005260405192838092631e1188b360e11b825260018060a01b03165afa801561023f575f906101f5575b6101f3915061024a565b565b506020903d602011610237575b601f8201601f19168101906001600160401b0382118183101761012a576101f39261023292604052810190610183565b6101e9565b3d9150610202565b6040513d5f823e3d90fd5b60018060a01b03608051165f80526020527f2ac55ae7ba47db34b5334622acafeb34a65daf143b47019273185d64c73a35a560405fa1807f1777adabd324f814e2b0e28f6edf876dce01d7d66358c9acfe87b1b5f38338d5556020527ff33499cccaa0611882086224cc48cd82ef54b66a4d2edf4ed67108dd516896d560405fa156fe60806040526004361015610011575f80fd5b5f3560e01c806304032dbb1461015f5780632812d2de1461015a5780632b07f280146101555780633476b76d14610150578063356dd3521461014b5780633c231166146101465780633fd83e1e1461014157806341f259b81461013c5780634272711d146101375780634c6c848f1461013257806354635570146101005780636e50f9601461012d578063826dbf82146101285780639151eb1f146101235780639c5cd31a1461011e5780639f2f94b314610119578063aeefe08c14610114578063c29a76771461010f578063cd01e52a1461010a578063d19bd571146101055763e7e5db4f14610100575f80fd5b610d70565b6118ea565b6117b7565b611711565b6116b9565b6115da565b6114cd565b611265565b61119f565b610dde565b610c99565b610c2b565b610b6f565b610b00565b610a90565b610a22565b6108b3565b6107d3565b61069c565b6102f9565b5f91031261016e57565b5f80fd5b815173ffffffffffffffffffffffffffffffffffffffff1681526102608101929160208181015160ff169083015260408101516040830152606081015160608301526080810151608083015260a081015160a08301526101ef60c082015160c084019073ffffffffffffffffffffffffffffffffffffffff169052565b60e08181015173ffffffffffffffffffffffffffffffffffffffff16908301526101008181015173ffffffffffffffffffffffffffffffffffffffff1690830152610120818101516fffffffffffffffffffffffffffffffff16908301526101408181015161ffff16908301526101608181015161ffff16908301526101808181015161ffff16908301526101a08181015163ffffffff16908301526101c08181015161ffff16908301526101e08181015163ffffffff16908301526102008181015173ffffffffffffffffffffffffffffffffffffffff16908301526102208181015173ffffffffffffffffffffffffffffffffffffffff169083015261024080910151910152565b3461016e575f7ffffffffffffffffffffffffffffffffffffffffffffffffffffffffffffffffc36011261016e5761032f611955565b6103376126a2565b602081015173ffffffffffffffffffffffffffffffffffffffff1682526101408082015160408401526101608083015160608501526101808084015160808601526101a08085015160a08701526101c0808601519093929060ff1660ff166020880152855173ffffffffffffffffffffffffffffffffffffffff1673ffffffffffffffffffffffffffffffffffffffff1660c0880152604086015173ffffffffffffffffffffffffffffffffffffffff1673ffffffffffffffffffffffffffffffffffffffff1660e088015273ffffffffffffffffffffffffffffffffffffffff7f000000000000000000000000000000000000000000000000000000000000000016610100888101919091529260808701516fffffffffffffffffffffffffffffffff166fffffffffffffffffffffffffffffffff166101208981019190915295606088015161ffff1661ffff169089015260a087015161ffff1661ffff169088015260c086015161ffff1661ffff169087015260e085015163ffffffff1663ffffffff169086015283015161ffff1661ffff169084015281015163ffffffff1663ffffffff166101e0838101919091529073ffffffffffffffffffffffffffffffffffffffff7f0000000000000000000000000000000000000000000000000000000000000000166102008401527f1777adabd324f814e2b0e28f6edf876dce01d7d66358c9acfe87b1b5f38338d55473ffffffffffffffffffffffffffffffffffffffff16610220840152015161024082015260405161057b819282610172565b0390f35b73ffffffffffffffffffffffffffffffffffffffff81160361016e57565b35906105a88261057f565b565b907fffffffffffffffffffffffffffffffffffffffffffffffffffffffffffffffe0601f602080948051918291828752018686015e5f8582860101520116010190565b61012060e0610699936020845273ffffffffffffffffffffffffffffffffffffffff815116602085015269ffffffffffffffffffff60208201511660408501526106426040820151606086019061ffff169052565b6060810151151560808501526080810151151560a085015260a081015162ffffff1660c085015260c081015173ffffffffffffffffffffffffffffffffffffffff16848301520151916101008082015201906105aa565b90565b3461016e5760207ffffffffffffffffffffffffffffffffffffffffffffffffffffffffffffffffc36011261016e5761057b6004356106da8161057f565b6040606060e082516106eb81610f05565b5f81525f60208201525f848201525f838201525f60808201525f60a08201525f60c0820152015273ffffffffffffffffffffffffffffffffffffffff8092165f5260016020526107c46002825f206107be84519561074887610f05565b8254818116885269ffffffffffffffffffff60a082901c16602089015260f01c868801525b600183015460ff811615156060890152600881901c60ff1615156080890152601081901c62ffffff1660a089015260281c1660c087019073ffffffffffffffffffffffffffffffffffffffff169052565b01611a2b565b60e083015251918291826105ed565b3461016e5760207ffffffffffffffffffffffffffffffffffffffffffffffffffffffffffffffffc36011261016e5760206004356108108161057f565b73ffffffffffffffffffffffffffffffffffffffff8091165f526002825260405f205416604051908152f35b9181601f8401121561016e5782359167ffffffffffffffff831161016e576020838186019501011161016e57565b6084359069ffffffffffffffffffff8216820361016e57565b6064359069ffffffffffffffffffff8216820361016e57565b61ffff81160361016e57565b35906105a88261089c565b3461016e5760c07ffffffffffffffffffffffffffffffffffffffffffffffffffffffffffffffffc36011261016e576004356108ee8161057f565b60243567ffffffffffffffff811161016e5761090e90369060040161083c565b60443561091a8161057f565b606435906109278261057f565b61092f61086a565b9260a4359461093d8661089c565b73ffffffffffffffffffffffffffffffffffffffff6040517f8da5cb5b000000000000000000000000000000000000000000000000000000008152602081600481857f0000000000000000000000000000000000000000000000000000000000000000165afa908115610a1d575f916109ee575b501633036109c4576109c29661206a565b005b60046040517f44d783c6000000000000000000000000000000000000000000000000000000008152fd5b610a10915060203d602011610a16575b610a088183610f58565b810190611b65565b5f6109b1565b503d6109fe565b611b7a565b3461016e575f7ffffffffffffffffffffffffffffffffffffffffffffffffffffffffffffffffc36011261016e57602060405173ffffffffffffffffffffffffffffffffffffffff7f0000000000000000000000000000000000000000000000000000000000000000168152f35b3461016e575f7ffffffffffffffffffffffffffffffffffffffffffffffffffffffffffffffffc36011261016e5760207f1777adabd324f814e2b0e28f6edf876dce01d7d66358c9acfe87b1b5f38338d55473ffffffffffffffffffffffffffffffffffffffff60405191168152f35b3461016e5760207ffffffffffffffffffffffffffffffffffffffffffffffffffffffffffffffffc36011261016e5773ffffffffffffffffffffffffffffffffffffffff600435610b508161057f565b165f526001602052602060ff600160405f200154166040519015158152f35b3461016e575f807ffffffffffffffffffffffffffffffffffffffffffffffffffffffffffffffffc36011261016e5773ffffffffffffffffffffffffffffffffffffffff7f000000000000000000000000000000000000000000000000000000000000000016803b1561016e575f80916024604051809481937fd91ae8c20000000000000000000000000000000000000000000000000000000083523060048401525af18015610a1d57610c21575080f35b6109c29150610f27565b3461016e575f7ffffffffffffffffffffffffffffffffffffffffffffffffffffffffffffffffc36011261016e57602060405173ffffffffffffffffffffffffffffffffffffffff7f0000000000000000000000000000000000000000000000000000000000000000168152f35b3461016e5760207ffffffffffffffffffffffffffffffffffffffffffffffffffffffffffffffffc36011261016e57600435610cd48161057f565b73ffffffffffffffffffffffffffffffffffffffff7f0000000000000000000000000000000000000000000000000000000000000000163303610d63577f1777adabd324f814e2b0e28f6edf876dce01d7d66358c9acfe87b1b5f38338d581815491555f526020527ff33499cccaa0611882086224cc48cd82ef54b66a4d2edf4ed67108dd516896d560405fa1005b634ee0b8f85f526004601cfd5b3461016e575f7ffffffffffffffffffffffffffffffffffffffffffffffffffffffffffffffffc36011261016e57602060405173ffffffffffffffffffffffffffffffffffffffff7f0000000000000000000000000000000000000000000000000000000000000000168152f35b3461016e575f7ffffffffffffffffffffffffffffffffffffffffffffffffffffffffffffffffc36011261016e57604051805f54808352602080930180915f80527f290decd9548b62a8d60345a988386fc84ba6bc95484008f6362f93160ef3e563905f5b86828210610eae578686610e5982880383610f58565b60405192839281840190828552518091526040840192915f5b828110610e8157505050500390f35b835173ffffffffffffffffffffffffffffffffffffffff1685528695509381019392810192600101610e72565b835473ffffffffffffffffffffffffffffffffffffffff1685529093019260019283019201610e43565b7f4e487b71000000000000000000000000000000000000000000000000000000005f52604160045260245ffd5b610100810190811067ffffffffffffffff821117610f2257604052565b610ed8565b67ffffffffffffffff8111610f2257604052565b610220810190811067ffffffffffffffff821117610f2257604052565b90601f7fffffffffffffffffffffffffffffffffffffffffffffffffffffffffffffffe0910116810190811067ffffffffffffffff821117610f2257604052565b60405190610140820182811067ffffffffffffffff821117610f2257604052565b60405190610260820182811067ffffffffffffffff821117610f2257604052565b604051906105a882610f05565b60405190610200820182811067ffffffffffffffff821117610f2257604052565b92919267ffffffffffffffff8211610f22576040519161105160207fffffffffffffffffffffffffffffffffffffffffffffffffffffffffffffffe0601f8401160184610f58565b82948184528183011161016e578281602093845f960137010152565b9080601f8301121561016e5781602061069993359101611009565b6fffffffffffffffffffffffffffffffff81160361016e57565b35906105a882611088565b63ffffffff81160361016e57565b35906105a8826110ad565b9190916101408184031261016e576110dc610f99565b926110e68261059d565b845267ffffffffffffffff90602083013582811161016e578161110a91850161106d565b6020860152604083013591821161016e5761112691830161106d565b6040840152611137606082016110a2565b6060840152611148608082016108a8565b608084015261115960a082016108a8565b60a084015261116a60c082016110bb565b60c084015261117b60e082016108a8565b60e084015261010061118e8183016110bb565b908401526101208091013590830152565b3461016e5760a07ffffffffffffffffffffffffffffffffffffffffffffffffffffffffffffffffc36011261016e576004356111da8161057f565b67ffffffffffffffff9060243582811161016e576111fc90369060040161083c565b9060443584811161016e576112159036906004016110c6565b60643594851161016e5761123061123c95369060040161083c565b939092608435956121fd565b6040805173ffffffffffffffffffffffffffffffffffffffff9384168152919092166020820152f35b3461016e577ffffffffffffffffffffffffffffffffffffffffffffffffffffffffffffffffc60608136011261016e5760049081359067ffffffffffffffff9081831161016e5761014090833603011261016e5760243590811161016e576112d0903690840161083c565b919073ffffffffffffffffffffffffffffffffffffffff6040517f0787c1fe0000000000000000000000000000000000000000000000000000000081526020818061133a338a830191909173ffffffffffffffffffffffffffffffffffffffff6020820193169052565b0381857f0000000000000000000000000000000000000000000000000000000000000000165afa908115610a1d575f9161149e575b5015611475576113c26113a861012485013560601c73ffffffffffffffffffffffffffffffffffffffff165f52600260205260405f2090565b5473ffffffffffffffffffffffffffffffffffffffff1690565b9081161561144c579061141f61141361057b9661140a61140561142598979673ffffffffffffffffffffffffffffffffffffffff165f52600160205260405f2090565b611aea565b943691016110c6565b91604435943691611009565b90612bc5565b60405173ffffffffffffffffffffffffffffffffffffffff90911681529081906020820190565b846040517f816fefa2000000000000000000000000000000000000000000000000000000008152fd5b846040517f02171e6a000000000000000000000000000000000000000000000000000000008152fd5b6114c0915060203d6020116114c6575b6114b88183610f58565b8101906121e5565b5f61136f565b503d6114ae565b3461016e5760a07ffffffffffffffffffffffffffffffffffffffffffffffffffffffffffffffffc36011261016e576004356115088161057f565b6024356115148161057f565b6044356115208161057f565b611528610883565b90608435926115368461089c565b73ffffffffffffffffffffffffffffffffffffffff6040517f8da5cb5b000000000000000000000000000000000000000000000000000000008152602081600481857f0000000000000000000000000000000000000000000000000000000000000000165afa908115610a1d575f916115bb575b501633036109c4576109c294612375565b6115d4915060203d602011610a1657610a088183610f58565b5f6115aa565b3461016e5760207ffffffffffffffffffffffffffffffffffffffffffffffffffffffffffffffffc36011261016e576004356116158161057f565b73ffffffffffffffffffffffffffffffffffffffff6040517f8da5cb5b000000000000000000000000000000000000000000000000000000008152602081600481857f0000000000000000000000000000000000000000000000000000000000000000165afa908115610a1d575f9161169a575b501633036109c4576109c2906124dd565b6116b3915060203d602011610a1657610a088183610f58565b5f611689565b3461016e575f7ffffffffffffffffffffffffffffffffffffffffffffffffffffffffffffffffc36011261016e5760206040517f00000000000000000000000000000000000000000000000000000000000000008152f35b3461016e5760207ffffffffffffffffffffffffffffffffffffffffffffffffffffffffffffffffc36011261016e57604080517f00000000000000000000000000000000000000000000000000000000000000005f5260043560209081527f000000000000000000000000000000000000000000000000000000000000000083526055600b209282905273ffffffffffffffffffffffffffffffffffffffff9092168152f35b3461016e5760407ffffffffffffffffffffffffffffffffffffffffffffffffffffffffffffffffc36011261016e576004356117f28161057f565b60243567ffffffffffffffff811161016e5761181290369060040161083c565b6040517f0787c1fe0000000000000000000000000000000000000000000000000000000081523360048201529192916020816024817f000000000000000000000000000000000000000000000000000000000000000073ffffffffffffffffffffffffffffffffffffffff165afa908115610a1d575f916118cb575b50156118a15761057b92611425926127fc565b60046040517f02171e6a000000000000000000000000000000000000000000000000000000008152fd5b6118e4915060203d6020116114c6576114b88183610f58565b5f61188e565b3461016e5760207ffffffffffffffffffffffffffffffffffffffffffffffffffffffffffffffffc36011261016e5760206004356119278161057f565b73ffffffffffffffffffffffffffffffffffffffff8091165f526002825260405f2054161515604051908152f35b61195d610fba565b905f82525f60208301525f60408301525f60608301525f60808301525f60a08301525f60c08301525f60e08301525f6101008301525f6101208301525f6101408301525f6101608301525f6101808301525f6101a08301525f6101c08301525f6101e08301525f6102008301525f6102208301525f610240830152565b90600182811c92168015611a21575b60208310146119f457565b7f4e487b71000000000000000000000000000000000000000000000000000000005f52602260045260245ffd5b91607f16916119e9565b9060405191825f8254611a3d816119da565b908184526020946001916001811690815f14611aa95750600114611a6b575b5050506105a892500383610f58565b5f90815285812095935091905b818310611a915750506105a893508201015f8080611a5c565b85548884018501529485019487945091830191611a78565b9150506105a89593507fffffffffffffffffffffffffffffffffffffffffffffffffffffffffffffff0091501682840152151560051b8201015f8080611a5c565b90604051611af781610f05565b60e0611b55600283956107be815461076d73ffffffffffffffffffffffffffffffffffffffff918281168952611b4b69ffffffffffffffffffff8260a01c1660208b019069ffffffffffffffffffff169052565b60f01c6040890152565b910152565b51906105a88261057f565b9081602091031261016e57516106998161057f565b6040513d5f823e3d90fd5b601f8211611b9257505050565b5f5260205f20906020601f840160051c83019310611bca575b601f0160051c01905b818110611bbf575050565b5f8155600101611bb4565b9091508190611bab565b919091825167ffffffffffffffff8111610f2257611bfc81611bf684546119da565b84611b85565b602080601f8311600114611c5b57508190611c4c9394955f92611c50575b50507fffffffffffffffffffffffffffffffffffffffffffffffffffffffffffffffff8260011b9260031b1c19161790565b9055565b015190505f80611c1a565b907fffffffffffffffffffffffffffffffffffffffffffffffffffffffffffffffe0831695611c8d855f5260205f2090565b925f905b888210611ce757505083600195969710611cb0575b505050811b019055565b01517fffffffffffffffffffffffffffffffffffffffffffffffffffffffffffffffff60f88460031b161c191690555f8080611ca6565b80600185968294968601518155019501930190611c91565b600260e06105a893611d6373ffffffffffffffffffffffffffffffffffffffff825116859073ffffffffffffffffffffffffffffffffffffffff167fffffffffffffffffffffffff0000000000000000000000000000000000000000825416179055565b602081015184547fffff00000000000000000000ffffffffffffffffffffffffffffffffffffffff1660a09190911b7dffffffffffffffffffff000000000000000000000000000000000000000016178455604081015184547dffffffffffffffffffffffffffffffffffffffffffffffffffffffffffff1660f09190911b7fffff00000000000000000000000000000000000000000000000000000000000016178455611f1b600185016060830151151560ff7fffffffffffffffffffffffffffffffffffffffffffffffffffffffffffffff008354169116178155611e83611e506080850151151590565b82547fffffffffffffffffffffffffffffffffffffffffffffffffffffffffffff00ff1690151560081b61ff0016178255565b611ecc611e9660a085015162ffffff1690565b82547fffffffffffffffffffffffffffffffffffffffffffffffffffffff000000ffff1660109190911b64ffffff000016178255565b60c083015181547fffffffffffffff0000000000000000000000000000000000000000ffffffffff1660289190911b78ffffffffffffffffffffffffffffffffffffffff000000000016179055565b01519101611bd4565b5f5468010000000000000000811015610f225760018101805f55811015611fab5773ffffffffffffffffffffffffffffffffffffffff905f80527f290decd9548b62a8d60345a988386fc84ba6bc95484008f6362f93160ef3e5630191167fffffffffffffffffffffffff0000000000000000000000000000000000000000825416179055565b7f4e487b71000000000000000000000000000000000000000000000000000000005f52603260045260245ffd5b95909160a09569ffffffffffffffffffff9360e07fffffffffffffffffffffffffffffffffffffffffffffffffffffffffffffffe0601f885f61ffff9b9f9e9a85908f8173ffffffffffffffffffffffffffffffffffffffff9b8c809b16835260c060208401528160c08401528483013701015201168a01019a16604089015216606087015216608085015216910152565b93959192959490946120a7600161209f8773ffffffffffffffffffffffffffffffffffffffff165f52600160205260405f2090565b015460ff1690565b6121bb57866121b6946120dd8585857f7735fb05b8e8ddc6039fa70a50d11434f6ba73219f3cc820e8100b10dcaf89ed9c612728565b6121a16120ed5f5462ffffff1690565b6121486120f8610fdb565b73ffffffffffffffffffffffffffffffffffffffff871681529169ffffffffffffffffffff8816602084015261ffff89166040840152600160608401526001608084015262ffffff1660a0830152565b73ffffffffffffffffffffffffffffffffffffffff841660c082015261216f36848c611009565b60e082015261219c8973ffffffffffffffffffffffffffffffffffffffff165f52600160205260405f2090565b611cff565b6121aa87611f24565b60405197889788611fd8565b0390a1565b60046040517f3704fb41000000000000000000000000000000000000000000000000000000008152fd5b9081602091031261016e5751801515810361016e5790565b6040517f0787c1fe000000000000000000000000000000000000000000000000000000008152336004820152959691959194909392916020816024817f000000000000000000000000000000000000000000000000000000000000000073ffffffffffffffffffffffffffffffffffffffff165afa908115610a1d575f91612356575b50156118a1576122ba6122b6600161209f8773ffffffffffffffffffffffffffffffffffffffff165f52600160205260405f2090565b1590565b61232c576122fa61141f92612329976122f46114058873ffffffffffffffffffffffffffffffffffffffff165f52600160205260405f2090565b966127fc565b6101208401805191989173ffffffffffffffffffffffffffffffffffffffff1660608a901b1790523691611009565b91565b60046040517f8cb2227e000000000000000000000000000000000000000000000000000000008152fd5b61236f915060203d6020116114c6576114b88183610f58565b5f612280565b929391909173ffffffffffffffffffffffffffffffffffffffff80941692835f52600160205260ff600160405f200154161561232c5785858460a097846123ed877fba32e46aec30b4be89696b127e3fc9923645feaf4184109ba3627ac28e4de3b59c61ffff9a69ffffffffffffffffffff99612728565b885f5260016020526124bc8760405f2061244f8460018301907fffffffffffffff0000000000000000000000000000000000000000ffffffffff78ffffffffffffffffffffffffffffffffffffffff000000000083549260281b169116179055565b7dffffffffffffffffffff000000000000000000000000000000000000000060a089901b1673ffffffffffffffffffffffffffffffffffffffff87161760f09290921b7fffff00000000000000000000000000000000000000000000000000000000000016919091179055565b604051988952166020880152166040860152166060840152166080820152a1565b73ffffffffffffffffffffffffffffffffffffffff16805f52600160205260ff600160405f200154161561232c576020817ff53ee7e14e8211031e94d3dbef2a1d525daa5842da39bffef5aa54c2cb76214a925f5260018252600160405f20017fffffffffffffffffffffffffffffffffffffffffffffffffffffffffffff00ff8154169055604051908152a1565b51906105a88261089c565b51906105a882611088565b51906105a8826110ad565b519060ff8216820361016e57565b908161020091031261016e576125af610fe8565b906125b981611b5a565b82526125c760208201611b5a565b60208301526125d860408201611b5a565b60408301526125e96060820161256c565b60608301526125fa60808201612577565b608083015261260b60a0820161256c565b60a083015261261c60c0820161256c565b60c083015261262d60e08201612582565b60e083015261010061264081830161256c565b90830152610120612652818301612582565b908301526101408082015190830152610160808201519083015261018080820151908301526101a080820151908301526101c061269081830161258d565b908301526101e0809101519082015290565b5f6101e06126ae610fe8565b8281528260208201528260408201528260608201528260808201528260a08201528260c08201528260e08201528261010082015282610120820152826101408201528261016082015282610180820152826101a0820152826101c0820152015261069961271961337e565b6020808251830101910161259b565b909169ffffffffffffffffffff1615159061ffff73ffffffffffffffffffffffffffffffffffffffff8092161594169283151594856127f4575b85156127d9575b5084156127b8575b50505081156127ac575b5061278257565b60046040517f6d24edae000000000000000000000000000000000000000000000000000000008152fd5b6127109150115f61277b565b9293509091826127ce575b5050905f8080612771565b161590505f806127c3565b8380929650916127ec575b50935f612769565b90505f6127e4565b945084612762565b929160016128288573ffffffffffffffffffffffffffffffffffffffff165f52600160205260405f2090565b015460ff81161561232c5760081c60ff161561295957605f906040519281863b91847fffffffffffffffffffffffffffffffffffffffffffffffffffffffffffffffff8085016001898c3c8488019033908201526040601f82015283603f82015201370101905ff091821561294c576040805173ffffffffffffffffffffffffffffffffffffffff8581168252831660208201526105a892917fa1d2f67e073e80e6ec12790c669d64ea9a5dbe85ed539a27549f7e447c480dfe91a161290c8473ffffffffffffffffffffffffffffffffffffffff165f52600260205260405f2090565b9073ffffffffffffffffffffffffffffffffffffffff167fffffffffffffffffffffffff0000000000000000000000000000000000000000825416179055565b63301164255f526004601cfd5b60046040517f0e8dc677000000000000000000000000000000000000000000000000000000008152fd5b9081602091031261016e575190565b90610699949273ffffffffffffffffffffffffffffffffffffffff8092168352166020820152608060408201526129e260808201845173ffffffffffffffffffffffffffffffffffffffff169052565b6020830151612a36612a02610140928360a08601526101c08501906105aa565b60408601517fffffffffffffffffffffffffffffffffffffffffffffffffffffffffffffff808583030160c08601526105aa565b60608501516fffffffffffffffffffffffffffffffff1660e084015293612abb6080820151612a6e610100918287019061ffff169052565b612a9b60a084015194612a8a610120968789019061ffff169052565b60c085015163ffffffff1690870152565b60e083015161ffff1661016086015282015163ffffffff16610180850152565b01516101a082015260608184039101526105aa565b805191908290602001825e015f815290565b6105a890612b04612afe94936040519586936020850190612ad0565b90612ad0565b037fffffffffffffffffffffffffffffffffffffffffffffffffffffffffffffffe08101845283610f58565b96959373ffffffffffffffffffffffffffffffffffffffff612b876101209a959d9c9b9794612b796fffffffffffffffffffffffffffffffff958c6101408091528d01906105aa565b908b820360208d01526105aa565b9c16604089015216606087015261ffff928380921660808801521660a086015263ffffffff80941660c08601521660e0840152166101008201520152565b90939273ffffffffffffffffffffffffffffffffffffffff90612c506020612c01855173ffffffffffffffffffffffffffffffffffffffff1690565b6040517fb0018c6000000000000000000000000000000000000000000000000000000000815273ffffffffffffffffffffffffffffffffffffffff909116600482015291829081906024820190565b0381867f0000000000000000000000000000000000000000000000000000000000000000165afa908115610a1d575f9161335f575b506133355761012083015160601c95338260601c14801561330b575b156132e157845173ffffffffffffffffffffffffffffffffffffffff16838116613285575b5082610120850151971696604051907f79502c550000000000000000000000000000000000000000000000000000000082526020826004818c5afa908115610a1d57612d59925f92613254575b50906bffff000000000000000000007fffffffffffffffffffffffffffffffffffffffff000000000000000000000000918060101c908460501c161760501b1691161790565b610120850152604080517f00000000000000000000000000000000000000000000000000000000000000005f5260208490527f000000000000000000000000000000000000000000000000000000000000000082526055600b20915273ffffffffffffffffffffffffffffffffffffffff1696803b1561016e57612e13915f9186838b604051968795869485937f28fd03070000000000000000000000000000000000000000000000000000000085523360048601612992565b03925af18015610a1d57613241575b50825173ffffffffffffffffffffffffffffffffffffffff16612e44906134e5565b9060208401518451612e699073ffffffffffffffffffffffffffffffffffffffff1690565b612e7290613692565b612e7b91612ae2565b9460408501518551612ea09073ffffffffffffffffffffffffffffffffffffffff1690565b612ea9906137fa565b612eb291612ae2565b928551612ed29073ffffffffffffffffffffffffffffffffffffffff1690565b9560c0830151612ef59073ffffffffffffffffffffffffffffffffffffffff1690565b60409093015161ffff1660608201516fffffffffffffffffffffffffffffffff16608083015161ffff1660a084015161ffff169060c0850151612f3b9063ffffffff1690565b9260e0860151612f4c9061ffff1690565b94610100870151612f609063ffffffff1690565b96610120015198612f6f610fe8565b33815273ffffffffffffffffffffffffffffffffffffffff9e8f1660208201529d1660408e015261ffff1660608d01526fffffffffffffffffffffffffffffffff1660808c015261ffff1660a08b015261ffff1660c08a015263ffffffff1660e089015261ffff1661010088015263ffffffff166101208701525f6101408701819052610160870181905261018087018190526101a087015260ff166101c08601526101e085015261302085613519565b61016086015261014085015261303582613519565b6101a086015261018085015261304a84613544565b863b6132175761307a907f0000000000000000000000000000000000000000000000000000000000000000613989565b50817f0000000000000000000000000000000000000000000000000000000000000000163b1561016e576040517fa79b9ec900000000000000000000000000000000000000000000000000000000815273ffffffffffffffffffffffffffffffffffffffff87166004820152905f82602481837f000000000000000000000000000000000000000000000000000000000000000088165af1908115610a1d577f4b898c0b5603286c725e400c46aa16e7114ae718390404c3ecb1f5f84f19b6019488936131f9936131fe575b505f7f78cf023adbf9fec5dbd8e980a6a3526d1d11c66c894ab342ade9ace71f5619045d602081015173ffffffffffffffffffffffffffffffffffffffff1660808201516fffffffffffffffffffffffffffffffff1660a083015161ffff1660c084015161ffff16906131c060e086015163ffffffff1690565b926131d161010087015161ffff1690565b946101e06131e761012089015163ffffffff1690565b970151976040519b8c9b169d8b612b30565b0390a2565b8061320b61321192610f27565b80610164565b5f613146565b60046040517f0313b285000000000000000000000000000000000000000000000000000000008152fd5b8061320b61324e92610f27565b5f612e22565b61327791925060203d60201161327e575b61326f8183610f58565b810190612983565b905f612d13565b503d613265565b6132db906132aa60c088015173ffffffffffffffffffffffffffffffffffffffff1690565b6132d36132c460208a015169ffffffffffffffffffff1690565b69ffffffffffffffffffff1690565b913390613490565b5f612cc6565b60046040517f861f5c0b000000000000000000000000000000000000000000000000000000008152fd5b507fffffffffffffffffffffffffffffffffffffffff000000000000000000000000821615612ca1565b60046040517f47426645000000000000000000000000000000000000000000000000000000008152fd5b613378915060203d6020116114c6576114b88183610f58565b5f612c85565b604051905f82525f7f78cf023adbf9fec5dbd8e980a6a3526d1d11c66c894ab342ade9ace71f561904805c9060018260011c9160018416938415613486575b60209485851081146134755784895290811561343a57506001146133e5575b50505050604052565b5f908152929350837f810543fe2cb308dcc7090dc0718da3cf7b1ea9e6ee6878e7d574d84a057628975b83851061342657505050508301015f8080806133dc565b805c8886018301529301928490820161340f565b93505050507fffffffffffffffffffffffffffffffffffffffffffffffffffffffffffffff009192501690830152604082015f8080806133dc565b602286634e487b715f52526024601cfd5b92607f16926133bd565b601c5f60649281946020966040519860605260405260601b602c526f23b872dd000000000000000000000000600c525af13d1560015f51141716156134d8575f606052604052565b637939f4245f526004601cfd5b5f6004601c60209363313ce56784525afa6101005f511060203d1416161561350c575f5190565b633394d1705f526004601cfd5b90603f82511161353757601f82015191603f601f8251119101510290565b6319a65cb65f526004601cfd5b604051815173ffffffffffffffffffffffffffffffffffffffff1660208201526105a891602081015173ffffffffffffffffffffffffffffffffffffffff166040830152604081015173ffffffffffffffffffffffffffffffffffffffff166060830152606081015161ffff16608083015260808101516fffffffffffffffffffffffffffffffff1660a083015260a081015161ffff1660c083015260c081015161ffff1660e083015260e0810151613608610100918285019063ffffffff169052565b81015161361e610120918285019061ffff169052565b810151613636610140918285019063ffffffff169052565b810151610160908184015281015161018090818401528101516101a090818401528101516101c09081840152810151906136786101e0928385019060ff169052565b01516102009081830152815261368d81610f3b565b6138ca565b5f6004601c82936306fdde0384525afa3d6020149015605f3d1182171581176137cf57501561375e5760205f803e5f5190613749600761373f847e1f0d1e100c1d070f090b19131c1706010e11080a1a141802121b1503160405601f6001831901831692836fffffffffffffffffffffffffffffffff1060071b901560081b1783811c67ffffffffffffffff1060061b1783811c63ffffffff1060051b1792831c63d76453e004161a1790565b60ff030160031c90565b91604051926040840160405283526020830152565b60405190602063ffffffe07fffffffffffffffffffffffffffffffffffffffffffffffffffffffffffffffff3d01168084016040527fffffffffffffffffffffffffffffffffffffffffffffffffffffffffffffffe03d0182853e013d186137c257565b634cb9c0005f526004601cfd5b6137e057634cb9c0005f526004601cfd5b3d6137f257632ed09f545f526004601cfd5b3d5f803e3d5ffd5b5f6004601c82936395d89b4184525afa3d6020149015605f3d1182171581176138a757501561375e5760205f803e5f5190613749600761373f847e1f0d1e100c1d070f090b19131c1706010e11080a1a141802121b1503160405601f6001831901831692836fffffffffffffffffffffffffffffffff1060071b901560081b1783811c67ffffffffffffffff1060061b1783811c63ffffffff1060051b1792831c63d76453e004161a1790565b6138b857634cb9c0005f526004601cfd5b3d6137f257633ddcc60a5f526004601cfd5b8051602080821090811561391257506001146138e4575050565b60209060011b910151177f78cf023adbf9fec5dbd8e980a6a3526d1d11c66c894ab342ade9ace71f5619045d565b92600191507f78cf023adbf9fec5dbd8e980a6a3526d1d11c66c894ab342ade9ace71f56190483831b8301815d5f527f810543fe2cb308dcc7090dc0718da3cf7b1ea9e6ee6878e7d574d84a05762897905f915b84831061397557505050505050565b838691828585010151815d01920191613966565b6040518160017fffffffffffffffffffffffffffffffffffffffffffffffffffffffffffffffff83943b019384923c5ff590811561294c5756fea164736f6c6343000819000a","linkReferences":{}},"methodIdentifiers":{"addHooksTemplate(address,string,address,address,uint80,uint16)":"3476b76d","archController()":"54635570","changeSphereXEngine(address)":"4c6c848f","computeMarketAddress(bytes32)":"c29a7677","deployHooksInstance(address,bytes)":"cd01e52a","deployMarket((address,string,string,uint128,uint16,uint16,uint32,uint16,uint32,uint256),bytes,bytes32)":"9151eb1f","deployMarketAndHooks(address,bytes,(address,string,string,uint128,uint16,uint16,uint32,uint16,uint32,uint256),bytes,bytes32)":"826dbf82","disableHooksTemplate(address)":"9f2f94b3","getHooksTemplateDetails(address)":"2812d2de","getHooksTemplateForInstance(address)":"2b07f280","getHooksTemplates()":"6e50f960","getMarketParameters()":"04032dbb","isHooksInstance(address)":"d19bd571","isHooksTemplate(address)":"3fd83e1e","marketInitCodeHash()":"aeefe08c","marketInitCodeStorage()":"356dd352","registerWithArchController()":"41f259b8","sanctionsSentinel()":"4272711d","sphereXEngine()":"3c231166","sphereXOperator()":"e7e5db4f","updateHooksTemplateFees(address,address,address,uint80,uint16)":"9c5cd31a"},"id":62}